{
	"FundMe.sol": {
		"FuneMe": {
			"abi": [
				{
					"inputs": [],
					"stateMutability": "nonpayable",
					"type": "constructor"
				},
				{
					"inputs": [],
					"name": "fund",
					"outputs": [],
					"stateMutability": "payable",
					"type": "function"
				},
				{
					"inputs": [
						{
							"internalType": "address",
							"name": "",
							"type": "address"
						}
					],
					"name": "fundersToAmount",
					"outputs": [
						{
							"internalType": "uint256",
							"name": "",
							"type": "uint256"
						}
					],
					"stateMutability": "view",
					"type": "function"
				},
				{
					"inputs": [],
					"name": "getChainlinkDataFeedLatestAnswer",
					"outputs": [
						{
							"internalType": "int256",
							"name": "",
							"type": "int256"
						}
					],
					"stateMutability": "view",
					"type": "function"
				},
				{
					"inputs": [],
					"name": "getFund",
					"outputs": [],
					"stateMutability": "nonpayable",
					"type": "function"
				},
				{
					"inputs": [],
					"name": "owner",
					"outputs": [
						{
							"internalType": "address",
							"name": "",
							"type": "address"
						}
					],
					"stateMutability": "view",
					"type": "function"
				},
				{
					"inputs": [],
					"name": "reFund",
					"outputs": [],
					"stateMutability": "nonpayable",
					"type": "function"
				},
				{
					"inputs": [
						{
							"internalType": "address",
							"name": "newOwner",
							"type": "address"
						}
					],
					"name": "transferOwnership",
					"outputs": [],
					"stateMutability": "nonpayable",
					"type": "function"
				}
			],
			"devdoc": {
				"kind": "dev",
				"methods": {},
				"version": 1
			},
			"evm": {
				"assembly": "    /* \"FundMe.sol\":173:2662  contract FuneMe {... */\n  mstore(0x40, 0x80)\n    /* \"FundMe.sol\":448:612  constructor() {... */\n  callvalue\n  dup1\n  iszero\n  tag_1\n  jumpi\n  0x00\n  dup1\n  revert\ntag_1:\n  pop\n    /* \"FundMe.sol\":534:576  0x694AA1769357215DE4FAC081bf1f309aDC325306 */\n  0x694aa1769357215de4fac081bf1f309adc325306\n    /* \"FundMe.sol\":501:509  dataFeed */\n  0x02\n  0x00\n    /* \"FundMe.sol\":501:577  dataFeed = AggregatorV3Interface(0x694AA1769357215DE4FAC081bf1f309aDC325306) */\n  0x0100\n  exp\n  dup2\n  sload\n  dup2\n  0xffffffffffffffffffffffffffffffffffffffff\n  mul\n  not\n  and\n  swap1\n  dup4\n  0xffffffffffffffffffffffffffffffffffffffff\n  and\n  mul\n  or\n  swap1\n  sstore\n  pop\n    /* \"FundMe.sol\":595:605  msg.sender */\n  caller\n    /* \"FundMe.sol\":587:592  owner */\n  0x01\n  0x00\n    /* \"FundMe.sol\":587:605  owner = msg.sender */\n  0x0100\n  exp\n  dup2\n  sload\n  dup2\n  0xffffffffffffffffffffffffffffffffffffffff\n  mul\n  not\n  and\n  swap1\n  dup4\n  0xffffffffffffffffffffffffffffffffffffffff\n  and\n  mul\n  or\n  swap1\n  sstore\n  pop\n    /* \"FundMe.sol\":173:2662  contract FuneMe {... */\n  dataSize(sub_0)\n  dup1\n  dataOffset(sub_0)\n  0x00\n  codecopy\n  0x00\n  return\nstop\n\nsub_0: assembly {\n        /* \"FundMe.sol\":173:2662  contract FuneMe {... */\n      mstore(0x40, 0x80)\n      jumpi(tag_1, lt(calldatasize, 0x04))\n      shr(0xe0, calldataload(0x00))\n      dup1\n      0x9f883a05\n      gt\n      tag_9\n      jumpi\n      dup1\n      0x9f883a05\n      eq\n      tag_5\n      jumpi\n      dup1\n      0xb60d4288\n      eq\n      tag_6\n      jumpi\n      dup1\n      0xbea4dfb5\n      eq\n      tag_7\n      jumpi\n      dup1\n      0xf2fde38b\n      eq\n      tag_8\n      jumpi\n      jump(tag_1)\n    tag_9:\n      dup1\n      0x0ff0a4df\n      eq\n      tag_2\n      jumpi\n      dup1\n      0x8da5cb5b\n      eq\n      tag_3\n      jumpi\n      dup1\n      0x8edd6eb6\n      eq\n      tag_4\n      jumpi\n    tag_1:\n      0x00\n      dup1\n      revert\n        /* \"FundMe.sol\":2293:2660  function reFund() external {... */\n    tag_2:\n      callvalue\n      dup1\n      iszero\n      tag_10\n      jumpi\n      0x00\n      dup1\n      revert\n    tag_10:\n      pop\n      tag_11\n      tag_12\n      jump\t// in\n    tag_11:\n      stop\n        /* \"FundMe.sol\":350:370  address public owner */\n    tag_3:\n      callvalue\n      dup1\n      iszero\n      tag_13\n      jumpi\n      0x00\n      dup1\n      revert\n    tag_13:\n      pop\n      tag_14\n      tag_15\n      jump\t// in\n    tag_14:\n      mload(0x40)\n      tag_16\n      swap2\n      swap1\n      tag_17\n      jump\t// in\n    tag_16:\n      mload(0x40)\n      dup1\n      swap2\n      sub\n      swap1\n      return\n        /* \"FundMe.sol\":1406:2112  function getFund() external {... */\n    tag_4:\n      callvalue\n      dup1\n      iszero\n      tag_18\n      jumpi\n      0x00\n      dup1\n      revert\n    tag_18:\n      pop\n      tag_19\n      tag_20\n      jump\t// in\n    tag_19:\n      stop\n        /* \"FundMe.sol\":195:245  mapping(address => uint256) public fundersToAmount */\n    tag_5:\n      callvalue\n      dup1\n      iszero\n      tag_21\n      jumpi\n      0x00\n      dup1\n      revert\n    tag_21:\n      pop\n      tag_22\n      0x04\n      dup1\n      calldatasize\n      sub\n      dup2\n      add\n      swap1\n      tag_23\n      swap2\n      swap1\n      tag_24\n      jump\t// in\n    tag_23:\n      tag_25\n      jump\t// in\n    tag_22:\n      mload(0x40)\n      tag_26\n      swap2\n      swap1\n      tag_27\n      jump\t// in\n    tag_26:\n      mload(0x40)\n      dup1\n      swap2\n      sub\n      swap1\n      return\n        /* \"FundMe.sol\":618:796  function fund() external payable {... */\n    tag_6:\n      tag_28\n      tag_29\n      jump\t// in\n    tag_28:\n      stop\n        /* \"FundMe.sol\":1062:1400  function getChainlinkDataFeedLatestAnswer() public view returns (int) {... */\n    tag_7:\n      callvalue\n      dup1\n      iszero\n      tag_30\n      jumpi\n      0x00\n      dup1\n      revert\n    tag_30:\n      pop\n      tag_31\n      tag_32\n      jump\t// in\n    tag_31:\n      mload(0x40)\n      tag_33\n      swap2\n      swap1\n      tag_34\n      jump\t// in\n    tag_33:\n      mload(0x40)\n      dup1\n      swap2\n      sub\n      swap1\n      return\n        /* \"FundMe.sol\":2118:2287  function transferOwnership(address newOwner) public  {... */\n    tag_8:\n      callvalue\n      dup1\n      iszero\n      tag_35\n      jumpi\n      0x00\n      dup1\n      revert\n    tag_35:\n      pop\n      tag_36\n      0x04\n      dup1\n      calldatasize\n      sub\n      dup2\n      add\n      swap1\n      tag_37\n      swap2\n      swap1\n      tag_24\n      jump\t// in\n    tag_37:\n      tag_38\n      jump\t// in\n    tag_36:\n      stop\n        /* \"FundMe.sol\":2293:2660  function reFund() external {... */\n    tag_12:\n        /* \"FundMe.sol\":330:344  100 * 10 ** 18 */\n      0x056bc75e2d63100000\n        /* \"FundMe.sol\":2338:2375  convertEth2USD(address(this).balance) */\n      tag_40\n        /* \"FundMe.sol\":2353:2374  address(this).balance */\n      selfbalance\n        /* \"FundMe.sol\":2338:2352  convertEth2USD */\n      tag_41\n        /* \"FundMe.sol\":2338:2375  convertEth2USD(address(this).balance) */\n      jump\t// in\n    tag_40:\n        /* \"FundMe.sol\":2338:2384  convertEth2USD(address(this).balance) < TARGET */\n      lt\n        /* \"FundMe.sol\":2330:2406  require(convertEth2USD(address(this).balance) < TARGET, \"Target is reached\") */\n      tag_42\n      jumpi\n      mload(0x40)\n      0x08c379a000000000000000000000000000000000000000000000000000000000\n      dup2\n      mstore\n      0x04\n      add\n      tag_43\n      swap1\n      tag_44\n      jump\t// in\n    tag_43:\n      mload(0x40)\n      dup1\n      swap2\n      sub\n      swap1\n      revert\n    tag_42:\n        /* \"FundMe.sol\":2455:2456  0 */\n      0x00\n        /* \"FundMe.sol\":2424:2439  fundersToAmount */\n      dup1\n        /* \"FundMe.sol\":2424:2451  fundersToAmount[msg.sender] */\n      0x00\n        /* \"FundMe.sol\":2440:2450  msg.sender */\n      caller\n        /* \"FundMe.sol\":2424:2451  fundersToAmount[msg.sender] */\n      0xffffffffffffffffffffffffffffffffffffffff\n      and\n      0xffffffffffffffffffffffffffffffffffffffff\n      and\n      dup2\n      mstore\n      0x20\n      add\n      swap1\n      dup2\n      mstore\n      0x20\n      add\n      0x00\n      keccak256\n      sload\n        /* \"FundMe.sol\":2424:2456  fundersToAmount[msg.sender] != 0 */\n      sub\n        /* \"FundMe.sol\":2416:2484  require(fundersToAmount[msg.sender] != 0, \"this is no fund for you\") */\n      tag_45\n      jumpi\n      mload(0x40)\n      0x08c379a000000000000000000000000000000000000000000000000000000000\n      dup2\n      mstore\n      0x04\n      add\n      tag_46\n      swap1\n      tag_47\n      jump\t// in\n    tag_46:\n      mload(0x40)\n      dup1\n      swap2\n      sub\n      swap1\n      revert\n    tag_45:\n        /* \"FundMe.sol\":2495:2507  bool success */\n      0x00\n        /* \"FundMe.sol\":2521:2531  msg.sender */\n      caller\n        /* \"FundMe.sol\":2513:2537  payable(msg.sender).call */\n      0xffffffffffffffffffffffffffffffffffffffff\n      and\n        /* \"FundMe.sol\":2545:2560  fundersToAmount */\n      0x00\n        /* \"FundMe.sol\":2545:2572  fundersToAmount[msg.sender] */\n      dup1\n        /* \"FundMe.sol\":2561:2571  msg.sender */\n      caller\n        /* \"FundMe.sol\":2545:2572  fundersToAmount[msg.sender] */\n      0xffffffffffffffffffffffffffffffffffffffff\n      and\n      0xffffffffffffffffffffffffffffffffffffffff\n      and\n      dup2\n      mstore\n      0x20\n      add\n      swap1\n      dup2\n      mstore\n      0x20\n      add\n      0x00\n      keccak256\n      sload\n        /* \"FundMe.sol\":2513:2577  payable(msg.sender).call{value: fundersToAmount[msg.sender]}(\"\") */\n      mload(0x40)\n      tag_48\n      swap1\n      tag_49\n      jump\t// in\n    tag_48:\n      0x00\n      mload(0x40)\n      dup1\n      dup4\n      sub\n      dup2\n      dup6\n      dup8\n      gas\n      call\n      swap3\n      pop\n      pop\n      pop\n      returndatasize\n      dup1\n      0x00\n      dup2\n      eq\n      tag_52\n      jumpi\n      mload(0x40)\n      swap2\n      pop\n      and(add(returndatasize, 0x3f), not(0x1f))\n      dup3\n      add\n      0x40\n      mstore\n      returndatasize\n      dup3\n      mstore\n      returndatasize\n      0x00\n      0x20\n      dup5\n      add\n      returndatacopy\n      jump(tag_51)\n    tag_52:\n      0x60\n      swap2\n      pop\n    tag_51:\n      pop\n        /* \"FundMe.sol\":2494:2577  (bool success, ) = payable(msg.sender).call{value: fundersToAmount[msg.sender]}(\"\") */\n      pop\n      swap1\n      pop\n        /* \"FundMe.sol\":2595:2602  success */\n      dup1\n        /* \"FundMe.sol\":2587:2612  require(success, \"error\") */\n      tag_53\n      jumpi\n      mload(0x40)\n      0x08c379a000000000000000000000000000000000000000000000000000000000\n      dup2\n      mstore\n      0x04\n      add\n      tag_54\n      swap1\n      tag_55\n      jump\t// in\n    tag_54:\n      mload(0x40)\n      dup1\n      swap2\n      sub\n      swap1\n      revert\n    tag_53:\n        /* \"FundMe.sol\":2652:2653  0 */\n      0x00\n        /* \"FundMe.sol\":2622:2637  fundersToAmount */\n      dup1\n        /* \"FundMe.sol\":2622:2649  fundersToAmount[msg.sender] */\n      0x00\n        /* \"FundMe.sol\":2638:2648  msg.sender */\n      caller\n        /* \"FundMe.sol\":2622:2649  fundersToAmount[msg.sender] */\n      0xffffffffffffffffffffffffffffffffffffffff\n      and\n      0xffffffffffffffffffffffffffffffffffffffff\n      and\n      dup2\n      mstore\n      0x20\n      add\n      swap1\n      dup2\n      mstore\n      0x20\n      add\n      0x00\n      keccak256\n        /* \"FundMe.sol\":2622:2653  fundersToAmount[msg.sender] = 0 */\n      dup2\n      swap1\n      sstore\n      pop\n        /* \"FundMe.sol\":2320:2660  {... */\n      pop\n        /* \"FundMe.sol\":2293:2660  function reFund() external {... */\n      jump\t// out\n        /* \"FundMe.sol\":350:370  address public owner */\n    tag_15:\n      0x01\n      0x00\n      swap1\n      sload\n      swap1\n      0x0100\n      exp\n      swap1\n      div\n      0xffffffffffffffffffffffffffffffffffffffff\n      and\n      dup2\n      jump\t// out\n        /* \"FundMe.sol\":1406:2112  function getFund() external {... */\n    tag_20:\n        /* \"FundMe.sol\":330:344  100 * 10 ** 18 */\n      0x056bc75e2d63100000\n        /* \"FundMe.sol\":1452:1489  convertEth2USD(address(this).balance) */\n      tag_57\n        /* \"FundMe.sol\":1467:1488  address(this).balance */\n      selfbalance\n        /* \"FundMe.sol\":1452:1466  convertEth2USD */\n      tag_41\n        /* \"FundMe.sol\":1452:1489  convertEth2USD(address(this).balance) */\n      jump\t// in\n    tag_57:\n        /* \"FundMe.sol\":1452:1499  convertEth2USD(address(this).balance) >= TARGET */\n      lt\n      iszero\n        /* \"FundMe.sol\":1444:1525  require(convertEth2USD(address(this).balance) >= TARGET, \"Target is not reached\") */\n      tag_58\n      jumpi\n      mload(0x40)\n      0x08c379a000000000000000000000000000000000000000000000000000000000\n      dup2\n      mstore\n      0x04\n      add\n      tag_59\n      swap1\n      tag_60\n      jump\t// in\n    tag_59:\n      mload(0x40)\n      dup1\n      swap2\n      sub\n      swap1\n      revert\n    tag_58:\n        /* \"FundMe.sol\":1557:1562  owner */\n      0x01\n      0x00\n      swap1\n      sload\n      swap1\n      0x0100\n      exp\n      swap1\n      div\n      0xffffffffffffffffffffffffffffffffffffffff\n      and\n        /* \"FundMe.sol\":1543:1562  msg.sender == owner */\n      0xffffffffffffffffffffffffffffffffffffffff\n      and\n        /* \"FundMe.sol\":1543:1553  msg.sender */\n      caller\n        /* \"FundMe.sol\":1543:1562  msg.sender == owner */\n      0xffffffffffffffffffffffffffffffffffffffff\n      and\n      eq\n        /* \"FundMe.sol\":1535:1608  require(msg.sender == owner, \"this function can only be called by owner\") */\n      tag_61\n      jumpi\n      mload(0x40)\n      0x08c379a000000000000000000000000000000000000000000000000000000000\n      dup2\n      mstore\n      0x04\n      add\n      tag_62\n      swap1\n      tag_63\n      jump\t// in\n    tag_62:\n      mload(0x40)\n      dup1\n      swap2\n      sub\n      swap1\n      revert\n    tag_61:\n        /* \"FundMe.sol\":1994:2006  bool success */\n      0x00\n        /* \"FundMe.sol\":2020:2030  msg.sender */\n      caller\n        /* \"FundMe.sol\":2012:2036  payable(msg.sender).call */\n      0xffffffffffffffffffffffffffffffffffffffff\n      and\n        /* \"FundMe.sol\":2044:2065  address(this).balance */\n      selfbalance\n        /* \"FundMe.sol\":2012:2070  payable(msg.sender).call{value: address(this).balance}(\"\") */\n      mload(0x40)\n      tag_64\n      swap1\n      tag_49\n      jump\t// in\n    tag_64:\n      0x00\n      mload(0x40)\n      dup1\n      dup4\n      sub\n      dup2\n      dup6\n      dup8\n      gas\n      call\n      swap3\n      pop\n      pop\n      pop\n      returndatasize\n      dup1\n      0x00\n      dup2\n      eq\n      tag_67\n      jumpi\n      mload(0x40)\n      swap2\n      pop\n      and(add(returndatasize, 0x3f), not(0x1f))\n      dup3\n      add\n      0x40\n      mstore\n      returndatasize\n      dup3\n      mstore\n      returndatasize\n      0x00\n      0x20\n      dup5\n      add\n      returndatacopy\n      jump(tag_66)\n    tag_67:\n      0x60\n      swap2\n      pop\n    tag_66:\n      pop\n        /* \"FundMe.sol\":1993:2070  (bool success, ) = payable(msg.sender).call{value: address(this).balance}(\"\") */\n      pop\n      swap1\n      pop\n        /* \"FundMe.sol\":2088:2095  success */\n      dup1\n        /* \"FundMe.sol\":2080:2105  require(success, \"error\") */\n      tag_68\n      jumpi\n      mload(0x40)\n      0x08c379a000000000000000000000000000000000000000000000000000000000\n      dup2\n      mstore\n      0x04\n      add\n      tag_69\n      swap1\n      tag_55\n      jump\t// in\n    tag_69:\n      mload(0x40)\n      dup1\n      swap2\n      sub\n      swap1\n      revert\n    tag_68:\n        /* \"FundMe.sol\":1434:2112  {... */\n      pop\n        /* \"FundMe.sol\":1406:2112  function getFund() external {... */\n      jump\t// out\n        /* \"FundMe.sol\":195:245  mapping(address => uint256) public fundersToAmount */\n    tag_25:\n      mstore(0x20, 0x00)\n      dup1\n      0x00\n      mstore\n      keccak256(0x00, 0x40)\n      0x00\n      swap2\n      pop\n      swap1\n      pop\n      sload\n      dup2\n      jump\t// out\n        /* \"FundMe.sol\":618:796  function fund() external payable {... */\n    tag_29:\n        /* \"FundMe.sol\":285:298  10 * 10 ** 18 */\n      0x8ac7230489e80000\n        /* \"FundMe.sol\":669:694  convertEth2USD(msg.value) */\n      tag_71\n        /* \"FundMe.sol\":684:693  msg.value */\n      callvalue\n        /* \"FundMe.sol\":669:683  convertEth2USD */\n      tag_41\n        /* \"FundMe.sol\":669:694  convertEth2USD(msg.value) */\n      jump\t// in\n    tag_71:\n        /* \"FundMe.sol\":669:711  convertEth2USD(msg.value) >= MINIMUM_VALUE */\n      lt\n      iszero\n        /* \"FundMe.sol\":661:729  require(convertEth2USD(msg.value) >= MINIMUM_VALUE, \"Send more ETH\") */\n      tag_72\n      jumpi\n      mload(0x40)\n      0x08c379a000000000000000000000000000000000000000000000000000000000\n      dup2\n      mstore\n      0x04\n      add\n      tag_73\n      swap1\n      tag_74\n      jump\t// in\n    tag_73:\n      mload(0x40)\n      dup1\n      swap2\n      sub\n      swap1\n      revert\n    tag_72:\n        /* \"FundMe.sol\":780:789  msg.value */\n      callvalue\n        /* \"FundMe.sol\":749:764  fundersToAmount */\n      0x00\n        /* \"FundMe.sol\":749:776  fundersToAmount[msg.sender] */\n      dup1\n        /* \"FundMe.sol\":765:775  msg.sender */\n      caller\n        /* \"FundMe.sol\":749:776  fundersToAmount[msg.sender] */\n      0xffffffffffffffffffffffffffffffffffffffff\n      and\n      0xffffffffffffffffffffffffffffffffffffffff\n      and\n      dup2\n      mstore\n      0x20\n      add\n      swap1\n      dup2\n      mstore\n      0x20\n      add\n      0x00\n      keccak256\n      0x00\n        /* \"FundMe.sol\":749:789  fundersToAmount[msg.sender] += msg.value */\n      dup3\n      dup3\n      sload\n      tag_75\n      swap2\n      swap1\n      tag_76\n      jump\t// in\n    tag_75:\n      swap3\n      pop\n      pop\n      dup2\n      swap1\n      sstore\n      pop\n        /* \"FundMe.sol\":618:796  function fund() external payable {... */\n      jump\t// out\n        /* \"FundMe.sol\":1062:1400  function getChainlinkDataFeedLatestAnswer() public view returns (int) {... */\n    tag_32:\n        /* \"FundMe.sol\":1127:1130  int */\n      0x00\n        /* \"FundMe.sol\":1217:1227  int answer */\n      dup1\n        /* \"FundMe.sol\":1344:1352  dataFeed */\n      0x02\n      0x00\n      swap1\n      sload\n      swap1\n      0x0100\n      exp\n      swap1\n      div\n      0xffffffffffffffffffffffffffffffffffffffff\n      and\n        /* \"FundMe.sol\":1344:1368  dataFeed.latestRoundData */\n      0xffffffffffffffffffffffffffffffffffffffff\n      and\n      0xfeaf968c\n        /* \"FundMe.sol\":1344:1370  dataFeed.latestRoundData() */\n      mload(0x40)\n      dup2\n      0xffffffff\n      and\n      0xe0\n      shl\n      dup2\n      mstore\n      0x04\n      add\n      0xa0\n      mload(0x40)\n      dup1\n      dup4\n      sub\n      dup2\n      dup7\n      gas\n      staticcall\n      iszero\n      dup1\n      iszero\n      tag_79\n      jumpi\n      returndatasize\n      0x00\n      dup1\n      returndatacopy\n      revert(0x00, returndatasize)\n    tag_79:\n      pop\n      pop\n      pop\n      pop\n      mload(0x40)\n      returndatasize\n      not(0x1f)\n      0x1f\n      dup3\n      add\n      and\n      dup3\n      add\n      dup1\n      0x40\n      mstore\n      pop\n      dup2\n      add\n      swap1\n      tag_80\n      swap2\n      swap1\n      tag_81\n      jump\t// in\n    tag_80:\n        /* \"FundMe.sol\":1169:1370  (... */\n      pop\n      pop\n      pop\n      swap2\n      pop\n      pop\n        /* \"FundMe.sol\":1387:1393  answer */\n      dup1\n        /* \"FundMe.sol\":1380:1393  return answer */\n      swap2\n      pop\n      pop\n        /* \"FundMe.sol\":1062:1400  function getChainlinkDataFeedLatestAnswer() public view returns (int) {... */\n      swap1\n      jump\t// out\n        /* \"FundMe.sol\":2118:2287  function transferOwnership(address newOwner) public  {... */\n    tag_38:\n        /* \"FundMe.sol\":2203:2208  owner */\n      0x01\n      0x00\n      swap1\n      sload\n      swap1\n      0x0100\n      exp\n      swap1\n      div\n      0xffffffffffffffffffffffffffffffffffffffff\n      and\n        /* \"FundMe.sol\":2189:2208  msg.sender == owner */\n      0xffffffffffffffffffffffffffffffffffffffff\n      and\n        /* \"FundMe.sol\":2189:2199  msg.sender */\n      caller\n        /* \"FundMe.sol\":2189:2208  msg.sender == owner */\n      0xffffffffffffffffffffffffffffffffffffffff\n      and\n      eq\n        /* \"FundMe.sol\":2181:2254  require(msg.sender == owner, \"this function can only be called by owner\") */\n      tag_83\n      jumpi\n      mload(0x40)\n      0x08c379a000000000000000000000000000000000000000000000000000000000\n      dup2\n      mstore\n      0x04\n      add\n      tag_84\n      swap1\n      tag_63\n      jump\t// in\n    tag_84:\n      mload(0x40)\n      dup1\n      swap2\n      sub\n      swap1\n      revert\n    tag_83:\n        /* \"FundMe.sol\":2272:2280  newOwner */\n      dup1\n        /* \"FundMe.sol\":2264:2269  owner */\n      0x01\n      0x00\n        /* \"FundMe.sol\":2264:2280  owner = newOwner */\n      0x0100\n      exp\n      dup2\n      sload\n      dup2\n      0xffffffffffffffffffffffffffffffffffffffff\n      mul\n      not\n      and\n      swap1\n      dup4\n      0xffffffffffffffffffffffffffffffffffffffff\n      and\n      mul\n      or\n      swap1\n      sstore\n      pop\n        /* \"FundMe.sol\":2118:2287  function transferOwnership(address newOwner) public  {... */\n      pop\n      jump\t// out\n        /* \"FundMe.sol\":802:1005  function convertEth2USD(uint256 ethAmount) internal view returns (uint256) {... */\n    tag_41:\n        /* \"FundMe.sol\":868:875  uint256 */\n      0x00\n        /* \"FundMe.sol\":887:903  uint256 ethPrice */\n      dup1\n        /* \"FundMe.sol\":914:948  getChainlinkDataFeedLatestAnswer() */\n      tag_86\n        /* \"FundMe.sol\":914:946  getChainlinkDataFeedLatestAnswer */\n      tag_32\n        /* \"FundMe.sol\":914:948  getChainlinkDataFeedLatestAnswer() */\n      jump\t// in\n    tag_86:\n        /* \"FundMe.sol\":887:949  uint256 ethPrice = uint256(getChainlinkDataFeedLatestAnswer()) */\n      swap1\n      pop\n        /* \"FundMe.sol\":990:997  10 ** 8 */\n      0x05f5e100\n        /* \"FundMe.sol\":978:986  ethPrice */\n      dup2\n        /* \"FundMe.sol\":966:975  ethAmount */\n      dup5\n        /* \"FundMe.sol\":966:986  ethAmount * ethPrice */\n      tag_87\n      swap2\n      swap1\n      tag_88\n      jump\t// in\n    tag_87:\n        /* \"FundMe.sol\":966:998  ethAmount * ethPrice / (10 ** 8) */\n      tag_89\n      swap2\n      swap1\n      tag_90\n      jump\t// in\n    tag_89:\n        /* \"FundMe.sol\":959:998  return ethAmount * ethPrice / (10 ** 8) */\n      swap2\n      pop\n      pop\n        /* \"FundMe.sol\":802:1005  function convertEth2USD(uint256 ethAmount) internal view returns (uint256) {... */\n      swap2\n      swap1\n      pop\n      jump\t// out\n        /* \"#utility.yul\":7:133   */\n    tag_91:\n        /* \"#utility.yul\":44:51   */\n      0x00\n        /* \"#utility.yul\":84:126   */\n      0xffffffffffffffffffffffffffffffffffffffff\n        /* \"#utility.yul\":77:82   */\n      dup3\n        /* \"#utility.yul\":73:127   */\n      and\n        /* \"#utility.yul\":62:127   */\n      swap1\n      pop\n        /* \"#utility.yul\":7:133   */\n      swap2\n      swap1\n      pop\n      jump\t// out\n        /* \"#utility.yul\":139:235   */\n    tag_92:\n        /* \"#utility.yul\":176:183   */\n      0x00\n        /* \"#utility.yul\":205:229   */\n      tag_131\n        /* \"#utility.yul\":223:228   */\n      dup3\n        /* \"#utility.yul\":205:229   */\n      tag_91\n      jump\t// in\n    tag_131:\n        /* \"#utility.yul\":194:229   */\n      swap1\n      pop\n        /* \"#utility.yul\":139:235   */\n      swap2\n      swap1\n      pop\n      jump\t// out\n        /* \"#utility.yul\":241:359   */\n    tag_93:\n        /* \"#utility.yul\":328:352   */\n      tag_133\n        /* \"#utility.yul\":346:351   */\n      dup2\n        /* \"#utility.yul\":328:352   */\n      tag_92\n      jump\t// in\n    tag_133:\n        /* \"#utility.yul\":323:326   */\n      dup3\n        /* \"#utility.yul\":316:353   */\n      mstore\n        /* \"#utility.yul\":241:359   */\n      pop\n      pop\n      jump\t// out\n        /* \"#utility.yul\":365:587   */\n    tag_17:\n        /* \"#utility.yul\":458:462   */\n      0x00\n        /* \"#utility.yul\":496:498   */\n      0x20\n        /* \"#utility.yul\":485:494   */\n      dup3\n        /* \"#utility.yul\":481:499   */\n      add\n        /* \"#utility.yul\":473:499   */\n      swap1\n      pop\n        /* \"#utility.yul\":509:580   */\n      tag_135\n        /* \"#utility.yul\":577:578   */\n      0x00\n        /* \"#utility.yul\":566:575   */\n      dup4\n        /* \"#utility.yul\":562:579   */\n      add\n        /* \"#utility.yul\":553:559   */\n      dup5\n        /* \"#utility.yul\":509:580   */\n      tag_93\n      jump\t// in\n    tag_135:\n        /* \"#utility.yul\":365:587   */\n      swap3\n      swap2\n      pop\n      pop\n      jump\t// out\n        /* \"#utility.yul\":674:791   */\n    tag_95:\n        /* \"#utility.yul\":783:784   */\n      0x00\n        /* \"#utility.yul\":780:781   */\n      dup1\n        /* \"#utility.yul\":773:785   */\n      revert\n        /* \"#utility.yul\":920:1042   */\n    tag_97:\n        /* \"#utility.yul\":993:1017   */\n      tag_140\n        /* \"#utility.yul\":1011:1016   */\n      dup2\n        /* \"#utility.yul\":993:1017   */\n      tag_92\n      jump\t// in\n    tag_140:\n        /* \"#utility.yul\":986:991   */\n      dup2\n        /* \"#utility.yul\":983:1018   */\n      eq\n        /* \"#utility.yul\":973:1036   */\n      tag_141\n      jumpi\n        /* \"#utility.yul\":1032:1033   */\n      0x00\n        /* \"#utility.yul\":1029:1030   */\n      dup1\n        /* \"#utility.yul\":1022:1034   */\n      revert\n        /* \"#utility.yul\":973:1036   */\n    tag_141:\n        /* \"#utility.yul\":920:1042   */\n      pop\n      jump\t// out\n        /* \"#utility.yul\":1048:1187   */\n    tag_98:\n        /* \"#utility.yul\":1094:1099   */\n      0x00\n        /* \"#utility.yul\":1132:1138   */\n      dup2\n        /* \"#utility.yul\":1119:1139   */\n      calldataload\n        /* \"#utility.yul\":1110:1139   */\n      swap1\n      pop\n        /* \"#utility.yul\":1148:1181   */\n      tag_143\n        /* \"#utility.yul\":1175:1180   */\n      dup2\n        /* \"#utility.yul\":1148:1181   */\n      tag_97\n      jump\t// in\n    tag_143:\n        /* \"#utility.yul\":1048:1187   */\n      swap3\n      swap2\n      pop\n      pop\n      jump\t// out\n        /* \"#utility.yul\":1193:1522   */\n    tag_24:\n        /* \"#utility.yul\":1252:1258   */\n      0x00\n        /* \"#utility.yul\":1301:1303   */\n      0x20\n        /* \"#utility.yul\":1289:1298   */\n      dup3\n        /* \"#utility.yul\":1280:1287   */\n      dup5\n        /* \"#utility.yul\":1276:1299   */\n      sub\n        /* \"#utility.yul\":1272:1304   */\n      slt\n        /* \"#utility.yul\":1269:1388   */\n      iszero\n      tag_145\n      jumpi\n        /* \"#utility.yul\":1307:1386   */\n      tag_146\n      tag_95\n      jump\t// in\n    tag_146:\n        /* \"#utility.yul\":1269:1388   */\n    tag_145:\n        /* \"#utility.yul\":1427:1428   */\n      0x00\n        /* \"#utility.yul\":1452:1505   */\n      tag_147\n        /* \"#utility.yul\":1497:1504   */\n      dup5\n        /* \"#utility.yul\":1488:1494   */\n      dup3\n        /* \"#utility.yul\":1477:1486   */\n      dup6\n        /* \"#utility.yul\":1473:1495   */\n      add\n        /* \"#utility.yul\":1452:1505   */\n      tag_98\n      jump\t// in\n    tag_147:\n        /* \"#utility.yul\":1442:1505   */\n      swap2\n      pop\n        /* \"#utility.yul\":1398:1515   */\n      pop\n        /* \"#utility.yul\":1193:1522   */\n      swap3\n      swap2\n      pop\n      pop\n      jump\t// out\n        /* \"#utility.yul\":1528:1605   */\n    tag_99:\n        /* \"#utility.yul\":1565:1572   */\n      0x00\n        /* \"#utility.yul\":1594:1599   */\n      dup2\n        /* \"#utility.yul\":1583:1599   */\n      swap1\n      pop\n        /* \"#utility.yul\":1528:1605   */\n      swap2\n      swap1\n      pop\n      jump\t// out\n        /* \"#utility.yul\":1611:1729   */\n    tag_100:\n        /* \"#utility.yul\":1698:1722   */\n      tag_150\n        /* \"#utility.yul\":1716:1721   */\n      dup2\n        /* \"#utility.yul\":1698:1722   */\n      tag_99\n      jump\t// in\n    tag_150:\n        /* \"#utility.yul\":1693:1696   */\n      dup3\n        /* \"#utility.yul\":1686:1723   */\n      mstore\n        /* \"#utility.yul\":1611:1729   */\n      pop\n      pop\n      jump\t// out\n        /* \"#utility.yul\":1735:1957   */\n    tag_27:\n        /* \"#utility.yul\":1828:1832   */\n      0x00\n        /* \"#utility.yul\":1866:1868   */\n      0x20\n        /* \"#utility.yul\":1855:1864   */\n      dup3\n        /* \"#utility.yul\":1851:1869   */\n      add\n        /* \"#utility.yul\":1843:1869   */\n      swap1\n      pop\n        /* \"#utility.yul\":1879:1950   */\n      tag_152\n        /* \"#utility.yul\":1947:1948   */\n      0x00\n        /* \"#utility.yul\":1936:1945   */\n      dup4\n        /* \"#utility.yul\":1932:1949   */\n      add\n        /* \"#utility.yul\":1923:1929   */\n      dup5\n        /* \"#utility.yul\":1879:1950   */\n      tag_100\n      jump\t// in\n    tag_152:\n        /* \"#utility.yul\":1735:1957   */\n      swap3\n      swap2\n      pop\n      pop\n      jump\t// out\n        /* \"#utility.yul\":1963:2039   */\n    tag_101:\n        /* \"#utility.yul\":1999:2006   */\n      0x00\n        /* \"#utility.yul\":2028:2033   */\n      dup2\n        /* \"#utility.yul\":2017:2033   */\n      swap1\n      pop\n        /* \"#utility.yul\":1963:2039   */\n      swap2\n      swap1\n      pop\n      jump\t// out\n        /* \"#utility.yul\":2045:2160   */\n    tag_102:\n        /* \"#utility.yul\":2130:2153   */\n      tag_155\n        /* \"#utility.yul\":2147:2152   */\n      dup2\n        /* \"#utility.yul\":2130:2153   */\n      tag_101\n      jump\t// in\n    tag_155:\n        /* \"#utility.yul\":2125:2128   */\n      dup3\n        /* \"#utility.yul\":2118:2154   */\n      mstore\n        /* \"#utility.yul\":2045:2160   */\n      pop\n      pop\n      jump\t// out\n        /* \"#utility.yul\":2166:2384   */\n    tag_34:\n        /* \"#utility.yul\":2257:2261   */\n      0x00\n        /* \"#utility.yul\":2295:2297   */\n      0x20\n        /* \"#utility.yul\":2284:2293   */\n      dup3\n        /* \"#utility.yul\":2280:2298   */\n      add\n        /* \"#utility.yul\":2272:2298   */\n      swap1\n      pop\n        /* \"#utility.yul\":2308:2377   */\n      tag_157\n        /* \"#utility.yul\":2374:2375   */\n      0x00\n        /* \"#utility.yul\":2363:2372   */\n      dup4\n        /* \"#utility.yul\":2359:2376   */\n      add\n        /* \"#utility.yul\":2350:2356   */\n      dup5\n        /* \"#utility.yul\":2308:2377   */\n      tag_102\n      jump\t// in\n    tag_157:\n        /* \"#utility.yul\":2166:2384   */\n      swap3\n      swap2\n      pop\n      pop\n      jump\t// out\n        /* \"#utility.yul\":2390:2559   */\n    tag_103:\n        /* \"#utility.yul\":2474:2485   */\n      0x00\n        /* \"#utility.yul\":2508:2514   */\n      dup3\n        /* \"#utility.yul\":2503:2506   */\n      dup3\n        /* \"#utility.yul\":2496:2515   */\n      mstore\n        /* \"#utility.yul\":2548:2552   */\n      0x20\n        /* \"#utility.yul\":2543:2546   */\n      dup3\n        /* \"#utility.yul\":2539:2553   */\n      add\n        /* \"#utility.yul\":2524:2553   */\n      swap1\n      pop\n        /* \"#utility.yul\":2390:2559   */\n      swap3\n      swap2\n      pop\n      pop\n      jump\t// out\n        /* \"#utility.yul\":2565:2732   */\n    tag_104:\n        /* \"#utility.yul\":2705:2724   */\n      0x5461726765742069732072656163686564000000000000000000000000000000\n        /* \"#utility.yul\":2701:2702   */\n      0x00\n        /* \"#utility.yul\":2693:2699   */\n      dup3\n        /* \"#utility.yul\":2689:2703   */\n      add\n        /* \"#utility.yul\":2682:2725   */\n      mstore\n        /* \"#utility.yul\":2565:2732   */\n      pop\n      jump\t// out\n        /* \"#utility.yul\":2738:3104   */\n    tag_105:\n        /* \"#utility.yul\":2880:2883   */\n      0x00\n        /* \"#utility.yul\":2901:2968   */\n      tag_161\n        /* \"#utility.yul\":2965:2967   */\n      0x11\n        /* \"#utility.yul\":2960:2963   */\n      dup4\n        /* \"#utility.yul\":2901:2968   */\n      tag_103\n      jump\t// in\n    tag_161:\n        /* \"#utility.yul\":2894:2968   */\n      swap2\n      pop\n        /* \"#utility.yul\":2977:3070   */\n      tag_162\n        /* \"#utility.yul\":3066:3069   */\n      dup3\n        /* \"#utility.yul\":2977:3070   */\n      tag_104\n      jump\t// in\n    tag_162:\n        /* \"#utility.yul\":3095:3097   */\n      0x20\n        /* \"#utility.yul\":3090:3093   */\n      dup3\n        /* \"#utility.yul\":3086:3098   */\n      add\n        /* \"#utility.yul\":3079:3098   */\n      swap1\n      pop\n        /* \"#utility.yul\":2738:3104   */\n      swap2\n      swap1\n      pop\n      jump\t// out\n        /* \"#utility.yul\":3110:3529   */\n    tag_44:\n        /* \"#utility.yul\":3276:3280   */\n      0x00\n        /* \"#utility.yul\":3314:3316   */\n      0x20\n        /* \"#utility.yul\":3303:3312   */\n      dup3\n        /* \"#utility.yul\":3299:3317   */\n      add\n        /* \"#utility.yul\":3291:3317   */\n      swap1\n      pop\n        /* \"#utility.yul\":3363:3372   */\n      dup2\n        /* \"#utility.yul\":3357:3361   */\n      dup2\n        /* \"#utility.yul\":3353:3373   */\n      sub\n        /* \"#utility.yul\":3349:3350   */\n      0x00\n        /* \"#utility.yul\":3338:3347   */\n      dup4\n        /* \"#utility.yul\":3334:3351   */\n      add\n        /* \"#utility.yul\":3327:3374   */\n      mstore\n        /* \"#utility.yul\":3391:3522   */\n      tag_164\n        /* \"#utility.yul\":3517:3521   */\n      dup2\n        /* \"#utility.yul\":3391:3522   */\n      tag_105\n      jump\t// in\n    tag_164:\n        /* \"#utility.yul\":3383:3522   */\n      swap1\n      pop\n        /* \"#utility.yul\":3110:3529   */\n      swap2\n      swap1\n      pop\n      jump\t// out\n        /* \"#utility.yul\":3535:3708   */\n    tag_106:\n        /* \"#utility.yul\":3675:3700   */\n      0x74686973206973206e6f2066756e6420666f7220796f75000000000000000000\n        /* \"#utility.yul\":3671:3672   */\n      0x00\n        /* \"#utility.yul\":3663:3669   */\n      dup3\n        /* \"#utility.yul\":3659:3673   */\n      add\n        /* \"#utility.yul\":3652:3701   */\n      mstore\n        /* \"#utility.yul\":3535:3708   */\n      pop\n      jump\t// out\n        /* \"#utility.yul\":3714:4080   */\n    tag_107:\n        /* \"#utility.yul\":3856:3859   */\n      0x00\n        /* \"#utility.yul\":3877:3944   */\n      tag_167\n        /* \"#utility.yul\":3941:3943   */\n      0x17\n        /* \"#utility.yul\":3936:3939   */\n      dup4\n        /* \"#utility.yul\":3877:3944   */\n      tag_103\n      jump\t// in\n    tag_167:\n        /* \"#utility.yul\":3870:3944   */\n      swap2\n      pop\n        /* \"#utility.yul\":3953:4046   */\n      tag_168\n        /* \"#utility.yul\":4042:4045   */\n      dup3\n        /* \"#utility.yul\":3953:4046   */\n      tag_106\n      jump\t// in\n    tag_168:\n        /* \"#utility.yul\":4071:4073   */\n      0x20\n        /* \"#utility.yul\":4066:4069   */\n      dup3\n        /* \"#utility.yul\":4062:4074   */\n      add\n        /* \"#utility.yul\":4055:4074   */\n      swap1\n      pop\n        /* \"#utility.yul\":3714:4080   */\n      swap2\n      swap1\n      pop\n      jump\t// out\n        /* \"#utility.yul\":4086:4505   */\n    tag_47:\n        /* \"#utility.yul\":4252:4256   */\n      0x00\n        /* \"#utility.yul\":4290:4292   */\n      0x20\n        /* \"#utility.yul\":4279:4288   */\n      dup3\n        /* \"#utility.yul\":4275:4293   */\n      add\n        /* \"#utility.yul\":4267:4293   */\n      swap1\n      pop\n        /* \"#utility.yul\":4339:4348   */\n      dup2\n        /* \"#utility.yul\":4333:4337   */\n      dup2\n        /* \"#utility.yul\":4329:4349   */\n      sub\n        /* \"#utility.yul\":4325:4326   */\n      0x00\n        /* \"#utility.yul\":4314:4323   */\n      dup4\n        /* \"#utility.yul\":4310:4327   */\n      add\n        /* \"#utility.yul\":4303:4350   */\n      mstore\n        /* \"#utility.yul\":4367:4498   */\n      tag_170\n        /* \"#utility.yul\":4493:4497   */\n      dup2\n        /* \"#utility.yul\":4367:4498   */\n      tag_107\n      jump\t// in\n    tag_170:\n        /* \"#utility.yul\":4359:4498   */\n      swap1\n      pop\n        /* \"#utility.yul\":4086:4505   */\n      swap2\n      swap1\n      pop\n      jump\t// out\n        /* \"#utility.yul\":4511:4658   */\n    tag_108:\n        /* \"#utility.yul\":4612:4623   */\n      0x00\n        /* \"#utility.yul\":4649:4652   */\n      dup2\n        /* \"#utility.yul\":4634:4652   */\n      swap1\n      pop\n        /* \"#utility.yul\":4511:4658   */\n      swap3\n      swap2\n      pop\n      pop\n      jump\t// out\n        /* \"#utility.yul\":4664:4778   */\n    tag_109:\n      pop\n      jump\t// out\n        /* \"#utility.yul\":4784:5182   */\n    tag_110:\n        /* \"#utility.yul\":4943:4946   */\n      0x00\n        /* \"#utility.yul\":4964:5047   */\n      tag_174\n        /* \"#utility.yul\":5045:5046   */\n      0x00\n        /* \"#utility.yul\":5040:5043   */\n      dup4\n        /* \"#utility.yul\":4964:5047   */\n      tag_108\n      jump\t// in\n    tag_174:\n        /* \"#utility.yul\":4957:5047   */\n      swap2\n      pop\n        /* \"#utility.yul\":5056:5149   */\n      tag_175\n        /* \"#utility.yul\":5145:5148   */\n      dup3\n        /* \"#utility.yul\":5056:5149   */\n      tag_109\n      jump\t// in\n    tag_175:\n        /* \"#utility.yul\":5174:5175   */\n      0x00\n        /* \"#utility.yul\":5169:5172   */\n      dup3\n        /* \"#utility.yul\":5165:5176   */\n      add\n        /* \"#utility.yul\":5158:5176   */\n      swap1\n      pop\n        /* \"#utility.yul\":4784:5182   */\n      swap2\n      swap1\n      pop\n      jump\t// out\n        /* \"#utility.yul\":5188:5567   */\n    tag_49:\n        /* \"#utility.yul\":5372:5375   */\n      0x00\n        /* \"#utility.yul\":5394:5541   */\n      tag_177\n        /* \"#utility.yul\":5537:5540   */\n      dup3\n        /* \"#utility.yul\":5394:5541   */\n      tag_110\n      jump\t// in\n    tag_177:\n        /* \"#utility.yul\":5387:5541   */\n      swap2\n      pop\n        /* \"#utility.yul\":5558:5561   */\n      dup2\n        /* \"#utility.yul\":5551:5561   */\n      swap1\n      pop\n        /* \"#utility.yul\":5188:5567   */\n      swap2\n      swap1\n      pop\n      jump\t// out\n        /* \"#utility.yul\":5573:5728   */\n    tag_111:\n        /* \"#utility.yul\":5713:5720   */\n      0x6572726f72000000000000000000000000000000000000000000000000000000\n        /* \"#utility.yul\":5709:5710   */\n      0x00\n        /* \"#utility.yul\":5701:5707   */\n      dup3\n        /* \"#utility.yul\":5697:5711   */\n      add\n        /* \"#utility.yul\":5690:5721   */\n      mstore\n        /* \"#utility.yul\":5573:5728   */\n      pop\n      jump\t// out\n        /* \"#utility.yul\":5734:6099   */\n    tag_112:\n        /* \"#utility.yul\":5876:5879   */\n      0x00\n        /* \"#utility.yul\":5897:5963   */\n      tag_180\n        /* \"#utility.yul\":5961:5962   */\n      0x05\n        /* \"#utility.yul\":5956:5959   */\n      dup4\n        /* \"#utility.yul\":5897:5963   */\n      tag_103\n      jump\t// in\n    tag_180:\n        /* \"#utility.yul\":5890:5963   */\n      swap2\n      pop\n        /* \"#utility.yul\":5972:6065   */\n      tag_181\n        /* \"#utility.yul\":6061:6064   */\n      dup3\n        /* \"#utility.yul\":5972:6065   */\n      tag_111\n      jump\t// in\n    tag_181:\n        /* \"#utility.yul\":6090:6092   */\n      0x20\n        /* \"#utility.yul\":6085:6088   */\n      dup3\n        /* \"#utility.yul\":6081:6093   */\n      add\n        /* \"#utility.yul\":6074:6093   */\n      swap1\n      pop\n        /* \"#utility.yul\":5734:6099   */\n      swap2\n      swap1\n      pop\n      jump\t// out\n        /* \"#utility.yul\":6105:6524   */\n    tag_55:\n        /* \"#utility.yul\":6271:6275   */\n      0x00\n        /* \"#utility.yul\":6309:6311   */\n      0x20\n        /* \"#utility.yul\":6298:6307   */\n      dup3\n        /* \"#utility.yul\":6294:6312   */\n      add\n        /* \"#utility.yul\":6286:6312   */\n      swap1\n      pop\n        /* \"#utility.yul\":6358:6367   */\n      dup2\n        /* \"#utility.yul\":6352:6356   */\n      dup2\n        /* \"#utility.yul\":6348:6368   */\n      sub\n        /* \"#utility.yul\":6344:6345   */\n      0x00\n        /* \"#utility.yul\":6333:6342   */\n      dup4\n        /* \"#utility.yul\":6329:6346   */\n      add\n        /* \"#utility.yul\":6322:6369   */\n      mstore\n        /* \"#utility.yul\":6386:6517   */\n      tag_183\n        /* \"#utility.yul\":6512:6516   */\n      dup2\n        /* \"#utility.yul\":6386:6517   */\n      tag_112\n      jump\t// in\n    tag_183:\n        /* \"#utility.yul\":6378:6517   */\n      swap1\n      pop\n        /* \"#utility.yul\":6105:6524   */\n      swap2\n      swap1\n      pop\n      jump\t// out\n        /* \"#utility.yul\":6530:6701   */\n    tag_113:\n        /* \"#utility.yul\":6670:6693   */\n      0x546172676574206973206e6f7420726561636865640000000000000000000000\n        /* \"#utility.yul\":6666:6667   */\n      0x00\n        /* \"#utility.yul\":6658:6664   */\n      dup3\n        /* \"#utility.yul\":6654:6668   */\n      add\n        /* \"#utility.yul\":6647:6694   */\n      mstore\n        /* \"#utility.yul\":6530:6701   */\n      pop\n      jump\t// out\n        /* \"#utility.yul\":6707:7073   */\n    tag_114:\n        /* \"#utility.yul\":6849:6852   */\n      0x00\n        /* \"#utility.yul\":6870:6937   */\n      tag_186\n        /* \"#utility.yul\":6934:6936   */\n      0x15\n        /* \"#utility.yul\":6929:6932   */\n      dup4\n        /* \"#utility.yul\":6870:6937   */\n      tag_103\n      jump\t// in\n    tag_186:\n        /* \"#utility.yul\":6863:6937   */\n      swap2\n      pop\n        /* \"#utility.yul\":6946:7039   */\n      tag_187\n        /* \"#utility.yul\":7035:7038   */\n      dup3\n        /* \"#utility.yul\":6946:7039   */\n      tag_113\n      jump\t// in\n    tag_187:\n        /* \"#utility.yul\":7064:7066   */\n      0x20\n        /* \"#utility.yul\":7059:7062   */\n      dup3\n        /* \"#utility.yul\":7055:7067   */\n      add\n        /* \"#utility.yul\":7048:7067   */\n      swap1\n      pop\n        /* \"#utility.yul\":6707:7073   */\n      swap2\n      swap1\n      pop\n      jump\t// out\n        /* \"#utility.yul\":7079:7498   */\n    tag_60:\n        /* \"#utility.yul\":7245:7249   */\n      0x00\n        /* \"#utility.yul\":7283:7285   */\n      0x20\n        /* \"#utility.yul\":7272:7281   */\n      dup3\n        /* \"#utility.yul\":7268:7286   */\n      add\n        /* \"#utility.yul\":7260:7286   */\n      swap1\n      pop\n        /* \"#utility.yul\":7332:7341   */\n      dup2\n        /* \"#utility.yul\":7326:7330   */\n      dup2\n        /* \"#utility.yul\":7322:7342   */\n      sub\n        /* \"#utility.yul\":7318:7319   */\n      0x00\n        /* \"#utility.yul\":7307:7316   */\n      dup4\n        /* \"#utility.yul\":7303:7320   */\n      add\n        /* \"#utility.yul\":7296:7343   */\n      mstore\n        /* \"#utility.yul\":7360:7491   */\n      tag_189\n        /* \"#utility.yul\":7486:7490   */\n      dup2\n        /* \"#utility.yul\":7360:7491   */\n      tag_114\n      jump\t// in\n    tag_189:\n        /* \"#utility.yul\":7352:7491   */\n      swap1\n      pop\n        /* \"#utility.yul\":7079:7498   */\n      swap2\n      swap1\n      pop\n      jump\t// out\n        /* \"#utility.yul\":7504:7732   */\n    tag_115:\n        /* \"#utility.yul\":7644:7678   */\n      0x746869732066756e6374696f6e2063616e206f6e6c792062652063616c6c6564\n        /* \"#utility.yul\":7640:7641   */\n      0x00\n        /* \"#utility.yul\":7632:7638   */\n      dup3\n        /* \"#utility.yul\":7628:7642   */\n      add\n        /* \"#utility.yul\":7621:7679   */\n      mstore\n        /* \"#utility.yul\":7713:7724   */\n      0x206279206f776e65720000000000000000000000000000000000000000000000\n        /* \"#utility.yul\":7708:7710   */\n      0x20\n        /* \"#utility.yul\":7700:7706   */\n      dup3\n        /* \"#utility.yul\":7696:7711   */\n      add\n        /* \"#utility.yul\":7689:7725   */\n      mstore\n        /* \"#utility.yul\":7504:7732   */\n      pop\n      jump\t// out\n        /* \"#utility.yul\":7738:8104   */\n    tag_116:\n        /* \"#utility.yul\":7880:7883   */\n      0x00\n        /* \"#utility.yul\":7901:7968   */\n      tag_192\n        /* \"#utility.yul\":7965:7967   */\n      0x29\n        /* \"#utility.yul\":7960:7963   */\n      dup4\n        /* \"#utility.yul\":7901:7968   */\n      tag_103\n      jump\t// in\n    tag_192:\n        /* \"#utility.yul\":7894:7968   */\n      swap2\n      pop\n        /* \"#utility.yul\":7977:8070   */\n      tag_193\n        /* \"#utility.yul\":8066:8069   */\n      dup3\n        /* \"#utility.yul\":7977:8070   */\n      tag_115\n      jump\t// in\n    tag_193:\n        /* \"#utility.yul\":8095:8097   */\n      0x40\n        /* \"#utility.yul\":8090:8093   */\n      dup3\n        /* \"#utility.yul\":8086:8098   */\n      add\n        /* \"#utility.yul\":8079:8098   */\n      swap1\n      pop\n        /* \"#utility.yul\":7738:8104   */\n      swap2\n      swap1\n      pop\n      jump\t// out\n        /* \"#utility.yul\":8110:8529   */\n    tag_63:\n        /* \"#utility.yul\":8276:8280   */\n      0x00\n        /* \"#utility.yul\":8314:8316   */\n      0x20\n        /* \"#utility.yul\":8303:8312   */\n      dup3\n        /* \"#utility.yul\":8299:8317   */\n      add\n        /* \"#utility.yul\":8291:8317   */\n      swap1\n      pop\n        /* \"#utility.yul\":8363:8372   */\n      dup2\n        /* \"#utility.yul\":8357:8361   */\n      dup2\n        /* \"#utility.yul\":8353:8373   */\n      sub\n        /* \"#utility.yul\":8349:8350   */\n      0x00\n        /* \"#utility.yul\":8338:8347   */\n      dup4\n        /* \"#utility.yul\":8334:8351   */\n      add\n        /* \"#utility.yul\":8327:8374   */\n      mstore\n        /* \"#utility.yul\":8391:8522   */\n      tag_195\n        /* \"#utility.yul\":8517:8521   */\n      dup2\n        /* \"#utility.yul\":8391:8522   */\n      tag_116\n      jump\t// in\n    tag_195:\n        /* \"#utility.yul\":8383:8522   */\n      swap1\n      pop\n        /* \"#utility.yul\":8110:8529   */\n      swap2\n      swap1\n      pop\n      jump\t// out\n        /* \"#utility.yul\":8535:8698   */\n    tag_117:\n        /* \"#utility.yul\":8675:8690   */\n      0x53656e64206d6f72652045544800000000000000000000000000000000000000\n        /* \"#utility.yul\":8671:8672   */\n      0x00\n        /* \"#utility.yul\":8663:8669   */\n      dup3\n        /* \"#utility.yul\":8659:8673   */\n      add\n        /* \"#utility.yul\":8652:8691   */\n      mstore\n        /* \"#utility.yul\":8535:8698   */\n      pop\n      jump\t// out\n        /* \"#utility.yul\":8704:9070   */\n    tag_118:\n        /* \"#utility.yul\":8846:8849   */\n      0x00\n        /* \"#utility.yul\":8867:8934   */\n      tag_198\n        /* \"#utility.yul\":8931:8933   */\n      0x0d\n        /* \"#utility.yul\":8926:8929   */\n      dup4\n        /* \"#utility.yul\":8867:8934   */\n      tag_103\n      jump\t// in\n    tag_198:\n        /* \"#utility.yul\":8860:8934   */\n      swap2\n      pop\n        /* \"#utility.yul\":8943:9036   */\n      tag_199\n        /* \"#utility.yul\":9032:9035   */\n      dup3\n        /* \"#utility.yul\":8943:9036   */\n      tag_117\n      jump\t// in\n    tag_199:\n        /* \"#utility.yul\":9061:9063   */\n      0x20\n        /* \"#utility.yul\":9056:9059   */\n      dup3\n        /* \"#utility.yul\":9052:9064   */\n      add\n        /* \"#utility.yul\":9045:9064   */\n      swap1\n      pop\n        /* \"#utility.yul\":8704:9070   */\n      swap2\n      swap1\n      pop\n      jump\t// out\n        /* \"#utility.yul\":9076:9495   */\n    tag_74:\n        /* \"#utility.yul\":9242:9246   */\n      0x00\n        /* \"#utility.yul\":9280:9282   */\n      0x20\n        /* \"#utility.yul\":9269:9278   */\n      dup3\n        /* \"#utility.yul\":9265:9283   */\n      add\n        /* \"#utility.yul\":9257:9283   */\n      swap1\n      pop\n        /* \"#utility.yul\":9329:9338   */\n      dup2\n        /* \"#utility.yul\":9323:9327   */\n      dup2\n        /* \"#utility.yul\":9319:9339   */\n      sub\n        /* \"#utility.yul\":9315:9316   */\n      0x00\n        /* \"#utility.yul\":9304:9313   */\n      dup4\n        /* \"#utility.yul\":9300:9317   */\n      add\n        /* \"#utility.yul\":9293:9340   */\n      mstore\n        /* \"#utility.yul\":9357:9488   */\n      tag_201\n        /* \"#utility.yul\":9483:9487   */\n      dup2\n        /* \"#utility.yul\":9357:9488   */\n      tag_118\n      jump\t// in\n    tag_201:\n        /* \"#utility.yul\":9349:9488   */\n      swap1\n      pop\n        /* \"#utility.yul\":9076:9495   */\n      swap2\n      swap1\n      pop\n      jump\t// out\n        /* \"#utility.yul\":9501:9681   */\n    tag_119:\n        /* \"#utility.yul\":9549:9626   */\n      0x4e487b7100000000000000000000000000000000000000000000000000000000\n        /* \"#utility.yul\":9546:9547   */\n      0x00\n        /* \"#utility.yul\":9539:9627   */\n      mstore\n        /* \"#utility.yul\":9646:9650   */\n      0x11\n        /* \"#utility.yul\":9643:9644   */\n      0x04\n        /* \"#utility.yul\":9636:9651   */\n      mstore\n        /* \"#utility.yul\":9670:9674   */\n      0x24\n        /* \"#utility.yul\":9667:9668   */\n      0x00\n        /* \"#utility.yul\":9660:9675   */\n      revert\n        /* \"#utility.yul\":9687:9878   */\n    tag_76:\n        /* \"#utility.yul\":9727:9730   */\n      0x00\n        /* \"#utility.yul\":9746:9766   */\n      tag_204\n        /* \"#utility.yul\":9764:9765   */\n      dup3\n        /* \"#utility.yul\":9746:9766   */\n      tag_99\n      jump\t// in\n    tag_204:\n        /* \"#utility.yul\":9741:9766   */\n      swap2\n      pop\n        /* \"#utility.yul\":9780:9800   */\n      tag_205\n        /* \"#utility.yul\":9798:9799   */\n      dup4\n        /* \"#utility.yul\":9780:9800   */\n      tag_99\n      jump\t// in\n    tag_205:\n        /* \"#utility.yul\":9775:9800   */\n      swap3\n      pop\n        /* \"#utility.yul\":9823:9824   */\n      dup3\n        /* \"#utility.yul\":9820:9821   */\n      dup3\n        /* \"#utility.yul\":9816:9825   */\n      add\n        /* \"#utility.yul\":9809:9825   */\n      swap1\n      pop\n        /* \"#utility.yul\":9844:9847   */\n      dup1\n        /* \"#utility.yul\":9841:9842   */\n      dup3\n        /* \"#utility.yul\":9838:9848   */\n      gt\n        /* \"#utility.yul\":9835:9871   */\n      iszero\n      tag_206\n      jumpi\n        /* \"#utility.yul\":9851:9869   */\n      tag_207\n      tag_119\n      jump\t// in\n    tag_207:\n        /* \"#utility.yul\":9835:9871   */\n    tag_206:\n        /* \"#utility.yul\":9687:9878   */\n      swap3\n      swap2\n      pop\n      pop\n      jump\t// out\n        /* \"#utility.yul\":9884:9989   */\n    tag_120:\n        /* \"#utility.yul\":9920:9927   */\n      0x00\n        /* \"#utility.yul\":9960:9982   */\n      0xffffffffffffffffffff\n        /* \"#utility.yul\":9953:9958   */\n      dup3\n        /* \"#utility.yul\":9949:9983   */\n      and\n        /* \"#utility.yul\":9938:9983   */\n      swap1\n      pop\n        /* \"#utility.yul\":9884:9989   */\n      swap2\n      swap1\n      pop\n      jump\t// out\n        /* \"#utility.yul\":9995:10115   */\n    tag_121:\n        /* \"#utility.yul\":10067:10090   */\n      tag_210\n        /* \"#utility.yul\":10084:10089   */\n      dup2\n        /* \"#utility.yul\":10067:10090   */\n      tag_120\n      jump\t// in\n    tag_210:\n        /* \"#utility.yul\":10060:10065   */\n      dup2\n        /* \"#utility.yul\":10057:10091   */\n      eq\n        /* \"#utility.yul\":10047:10109   */\n      tag_211\n      jumpi\n        /* \"#utility.yul\":10105:10106   */\n      0x00\n        /* \"#utility.yul\":10102:10103   */\n      dup1\n        /* \"#utility.yul\":10095:10107   */\n      revert\n        /* \"#utility.yul\":10047:10109   */\n    tag_211:\n        /* \"#utility.yul\":9995:10115   */\n      pop\n      jump\t// out\n        /* \"#utility.yul\":10121:10262   */\n    tag_122:\n        /* \"#utility.yul\":10177:10182   */\n      0x00\n        /* \"#utility.yul\":10208:10214   */\n      dup2\n        /* \"#utility.yul\":10202:10215   */\n      mload\n        /* \"#utility.yul\":10193:10215   */\n      swap1\n      pop\n        /* \"#utility.yul\":10224:10256   */\n      tag_213\n        /* \"#utility.yul\":10250:10255   */\n      dup2\n        /* \"#utility.yul\":10224:10256   */\n      tag_121\n      jump\t// in\n    tag_213:\n        /* \"#utility.yul\":10121:10262   */\n      swap3\n      swap2\n      pop\n      pop\n      jump\t// out\n        /* \"#utility.yul\":10268:10388   */\n    tag_123:\n        /* \"#utility.yul\":10340:10363   */\n      tag_215\n        /* \"#utility.yul\":10357:10362   */\n      dup2\n        /* \"#utility.yul\":10340:10363   */\n      tag_101\n      jump\t// in\n    tag_215:\n        /* \"#utility.yul\":10333:10338   */\n      dup2\n        /* \"#utility.yul\":10330:10364   */\n      eq\n        /* \"#utility.yul\":10320:10382   */\n      tag_216\n      jumpi\n        /* \"#utility.yul\":10378:10379   */\n      0x00\n        /* \"#utility.yul\":10375:10376   */\n      dup1\n        /* \"#utility.yul\":10368:10380   */\n      revert\n        /* \"#utility.yul\":10320:10382   */\n    tag_216:\n        /* \"#utility.yul\":10268:10388   */\n      pop\n      jump\t// out\n        /* \"#utility.yul\":10394:10535   */\n    tag_124:\n        /* \"#utility.yul\":10450:10455   */\n      0x00\n        /* \"#utility.yul\":10481:10487   */\n      dup2\n        /* \"#utility.yul\":10475:10488   */\n      mload\n        /* \"#utility.yul\":10466:10488   */\n      swap1\n      pop\n        /* \"#utility.yul\":10497:10529   */\n      tag_218\n        /* \"#utility.yul\":10523:10528   */\n      dup2\n        /* \"#utility.yul\":10497:10529   */\n      tag_123\n      jump\t// in\n    tag_218:\n        /* \"#utility.yul\":10394:10535   */\n      swap3\n      swap2\n      pop\n      pop\n      jump\t// out\n        /* \"#utility.yul\":10541:10663   */\n    tag_125:\n        /* \"#utility.yul\":10614:10638   */\n      tag_220\n        /* \"#utility.yul\":10632:10637   */\n      dup2\n        /* \"#utility.yul\":10614:10638   */\n      tag_99\n      jump\t// in\n    tag_220:\n        /* \"#utility.yul\":10607:10612   */\n      dup2\n        /* \"#utility.yul\":10604:10639   */\n      eq\n        /* \"#utility.yul\":10594:10657   */\n      tag_221\n      jumpi\n        /* \"#utility.yul\":10653:10654   */\n      0x00\n        /* \"#utility.yul\":10650:10651   */\n      dup1\n        /* \"#utility.yul\":10643:10655   */\n      revert\n        /* \"#utility.yul\":10594:10657   */\n    tag_221:\n        /* \"#utility.yul\":10541:10663   */\n      pop\n      jump\t// out\n        /* \"#utility.yul\":10669:10812   */\n    tag_126:\n        /* \"#utility.yul\":10726:10731   */\n      0x00\n        /* \"#utility.yul\":10757:10763   */\n      dup2\n        /* \"#utility.yul\":10751:10764   */\n      mload\n        /* \"#utility.yul\":10742:10764   */\n      swap1\n      pop\n        /* \"#utility.yul\":10773:10806   */\n      tag_223\n        /* \"#utility.yul\":10800:10805   */\n      dup2\n        /* \"#utility.yul\":10773:10806   */\n      tag_125\n      jump\t// in\n    tag_223:\n        /* \"#utility.yul\":10669:10812   */\n      swap3\n      swap2\n      pop\n      pop\n      jump\t// out\n        /* \"#utility.yul\":10818:11789   */\n    tag_81:\n        /* \"#utility.yul\":10921:10927   */\n      0x00\n        /* \"#utility.yul\":10929:10935   */\n      dup1\n        /* \"#utility.yul\":10937:10943   */\n      0x00\n        /* \"#utility.yul\":10945:10951   */\n      dup1\n        /* \"#utility.yul\":10953:10959   */\n      0x00\n        /* \"#utility.yul\":11002:11005   */\n      0xa0\n        /* \"#utility.yul\":10990:10999   */\n      dup7\n        /* \"#utility.yul\":10981:10988   */\n      dup9\n        /* \"#utility.yul\":10977:11000   */\n      sub\n        /* \"#utility.yul\":10973:11006   */\n      slt\n        /* \"#utility.yul\":10970:11090   */\n      iszero\n      tag_225\n      jumpi\n        /* \"#utility.yul\":11009:11088   */\n      tag_226\n      tag_95\n      jump\t// in\n    tag_226:\n        /* \"#utility.yul\":10970:11090   */\n    tag_225:\n        /* \"#utility.yul\":11129:11130   */\n      0x00\n        /* \"#utility.yul\":11154:11217   */\n      tag_227\n        /* \"#utility.yul\":11209:11216   */\n      dup9\n        /* \"#utility.yul\":11200:11206   */\n      dup3\n        /* \"#utility.yul\":11189:11198   */\n      dup10\n        /* \"#utility.yul\":11185:11207   */\n      add\n        /* \"#utility.yul\":11154:11217   */\n      tag_122\n      jump\t// in\n    tag_227:\n        /* \"#utility.yul\":11144:11217   */\n      swap6\n      pop\n        /* \"#utility.yul\":11100:11227   */\n      pop\n        /* \"#utility.yul\":11266:11268   */\n      0x20\n        /* \"#utility.yul\":11292:11355   */\n      tag_228\n        /* \"#utility.yul\":11347:11354   */\n      dup9\n        /* \"#utility.yul\":11338:11344   */\n      dup3\n        /* \"#utility.yul\":11327:11336   */\n      dup10\n        /* \"#utility.yul\":11323:11345   */\n      add\n        /* \"#utility.yul\":11292:11355   */\n      tag_124\n      jump\t// in\n    tag_228:\n        /* \"#utility.yul\":11282:11355   */\n      swap5\n      pop\n        /* \"#utility.yul\":11237:11365   */\n      pop\n        /* \"#utility.yul\":11404:11406   */\n      0x40\n        /* \"#utility.yul\":11430:11494   */\n      tag_229\n        /* \"#utility.yul\":11486:11493   */\n      dup9\n        /* \"#utility.yul\":11477:11483   */\n      dup3\n        /* \"#utility.yul\":11466:11475   */\n      dup10\n        /* \"#utility.yul\":11462:11484   */\n      add\n        /* \"#utility.yul\":11430:11494   */\n      tag_126\n      jump\t// in\n    tag_229:\n        /* \"#utility.yul\":11420:11494   */\n      swap4\n      pop\n        /* \"#utility.yul\":11375:11504   */\n      pop\n        /* \"#utility.yul\":11543:11545   */\n      0x60\n        /* \"#utility.yul\":11569:11633   */\n      tag_230\n        /* \"#utility.yul\":11625:11632   */\n      dup9\n        /* \"#utility.yul\":11616:11622   */\n      dup3\n        /* \"#utility.yul\":11605:11614   */\n      dup10\n        /* \"#utility.yul\":11601:11623   */\n      add\n        /* \"#utility.yul\":11569:11633   */\n      tag_126\n      jump\t// in\n    tag_230:\n        /* \"#utility.yul\":11559:11633   */\n      swap3\n      pop\n        /* \"#utility.yul\":11514:11643   */\n      pop\n        /* \"#utility.yul\":11682:11685   */\n      0x80\n        /* \"#utility.yul\":11709:11772   */\n      tag_231\n        /* \"#utility.yul\":11764:11771   */\n      dup9\n        /* \"#utility.yul\":11755:11761   */\n      dup3\n        /* \"#utility.yul\":11744:11753   */\n      dup10\n        /* \"#utility.yul\":11740:11762   */\n      add\n        /* \"#utility.yul\":11709:11772   */\n      tag_122\n      jump\t// in\n    tag_231:\n        /* \"#utility.yul\":11699:11772   */\n      swap2\n      pop\n        /* \"#utility.yul\":11653:11782   */\n      pop\n        /* \"#utility.yul\":10818:11789   */\n      swap3\n      swap6\n      pop\n      swap3\n      swap6\n      swap1\n      swap4\n      pop\n      jump\t// out\n        /* \"#utility.yul\":11795:12205   */\n    tag_88:\n        /* \"#utility.yul\":11835:11842   */\n      0x00\n        /* \"#utility.yul\":11858:11878   */\n      tag_233\n        /* \"#utility.yul\":11876:11877   */\n      dup3\n        /* \"#utility.yul\":11858:11878   */\n      tag_99\n      jump\t// in\n    tag_233:\n        /* \"#utility.yul\":11853:11878   */\n      swap2\n      pop\n        /* \"#utility.yul\":11892:11912   */\n      tag_234\n        /* \"#utility.yul\":11910:11911   */\n      dup4\n        /* \"#utility.yul\":11892:11912   */\n      tag_99\n      jump\t// in\n    tag_234:\n        /* \"#utility.yul\":11887:11912   */\n      swap3\n      pop\n        /* \"#utility.yul\":11947:11948   */\n      dup3\n        /* \"#utility.yul\":11944:11945   */\n      dup3\n        /* \"#utility.yul\":11940:11949   */\n      mul\n        /* \"#utility.yul\":11969:11999   */\n      tag_235\n        /* \"#utility.yul\":11987:11998   */\n      dup2\n        /* \"#utility.yul\":11969:11999   */\n      tag_99\n      jump\t// in\n    tag_235:\n        /* \"#utility.yul\":11958:11999   */\n      swap2\n      pop\n        /* \"#utility.yul\":12148:12149   */\n      dup3\n        /* \"#utility.yul\":12139:12146   */\n      dup3\n        /* \"#utility.yul\":12135:12150   */\n      div\n        /* \"#utility.yul\":12132:12133   */\n      dup5\n        /* \"#utility.yul\":12129:12151   */\n      eq\n        /* \"#utility.yul\":12109:12110   */\n      dup4\n        /* \"#utility.yul\":12102:12111   */\n      iszero\n        /* \"#utility.yul\":12082:12165   */\n      or\n        /* \"#utility.yul\":12059:12198   */\n      tag_236\n      jumpi\n        /* \"#utility.yul\":12178:12196   */\n      tag_237\n      tag_119\n      jump\t// in\n    tag_237:\n        /* \"#utility.yul\":12059:12198   */\n    tag_236:\n        /* \"#utility.yul\":11843:12205   */\n      pop\n        /* \"#utility.yul\":11795:12205   */\n      swap3\n      swap2\n      pop\n      pop\n      jump\t// out\n        /* \"#utility.yul\":12211:12391   */\n    tag_127:\n        /* \"#utility.yul\":12259:12336   */\n      0x4e487b7100000000000000000000000000000000000000000000000000000000\n        /* \"#utility.yul\":12256:12257   */\n      0x00\n        /* \"#utility.yul\":12249:12337   */\n      mstore\n        /* \"#utility.yul\":12356:12360   */\n      0x12\n        /* \"#utility.yul\":12353:12354   */\n      0x04\n        /* \"#utility.yul\":12346:12361   */\n      mstore\n        /* \"#utility.yul\":12380:12384   */\n      0x24\n        /* \"#utility.yul\":12377:12378   */\n      0x00\n        /* \"#utility.yul\":12370:12385   */\n      revert\n        /* \"#utility.yul\":12397:12582   */\n    tag_90:\n        /* \"#utility.yul\":12437:12438   */\n      0x00\n        /* \"#utility.yul\":12454:12474   */\n      tag_240\n        /* \"#utility.yul\":12472:12473   */\n      dup3\n        /* \"#utility.yul\":12454:12474   */\n      tag_99\n      jump\t// in\n    tag_240:\n        /* \"#utility.yul\":12449:12474   */\n      swap2\n      pop\n        /* \"#utility.yul\":12488:12508   */\n      tag_241\n        /* \"#utility.yul\":12506:12507   */\n      dup4\n        /* \"#utility.yul\":12488:12508   */\n      tag_99\n      jump\t// in\n    tag_241:\n        /* \"#utility.yul\":12483:12508   */\n      swap3\n      pop\n        /* \"#utility.yul\":12527:12528   */\n      dup3\n        /* \"#utility.yul\":12517:12552   */\n      tag_242\n      jumpi\n        /* \"#utility.yul\":12532:12550   */\n      tag_243\n      tag_127\n      jump\t// in\n    tag_243:\n        /* \"#utility.yul\":12517:12552   */\n    tag_242:\n        /* \"#utility.yul\":12574:12575   */\n      dup3\n        /* \"#utility.yul\":12571:12572   */\n      dup3\n        /* \"#utility.yul\":12567:12576   */\n      div\n        /* \"#utility.yul\":12562:12576   */\n      swap1\n      pop\n        /* \"#utility.yul\":12397:12582   */\n      swap3\n      swap2\n      pop\n      pop\n      jump\t// out\n\n    auxdata: 0xa2646970667358221220f38f666b3c69424317745faa25868002be6910897607da002ea4d7b154e946af64736f6c634300081a0033\n}\n",
				"bytecode": {
					"linkReferences": {},
					"object": "6080604052348015600e575f80fd5b5073694aa1769357215de4fac081bf1f309adc32530660025f6101000a81548173ffffffffffffffffffffffffffffffffffffffff021916908373ffffffffffffffffffffffffffffffffffffffff1602179055503360015f6101000a81548173ffffffffffffffffffffffffffffffffffffffff021916908373ffffffffffffffffffffffffffffffffffffffff160217905550610d9e806100b05f395ff3fe60806040526004361061006f575f3560e01c80639f883a051161004d5780639f883a05146100c9578063b60d428814610105578063bea4dfb51461010f578063f2fde38b146101395761006f565b80630ff0a4df146100735780638da5cb5b146100895780638edd6eb6146100b3575b5f80fd5b34801561007e575f80fd5b50610087610161565b005b348015610094575f80fd5b5061009d61035a565b6040516100aa91906107a5565b60405180910390f35b3480156100be575f80fd5b506100c761037f565b005b3480156100d4575f80fd5b506100ef60048036038101906100ea91906107ec565b61050d565b6040516100fc919061082f565b60405180910390f35b61010d610521565b005b34801561011a575f80fd5b506101236105c8565b6040516101309190610860565b60405180910390f35b348015610144575f80fd5b5061015f600480360381019061015a91906107ec565b610665565b005b68056bc75e2d6310000061017447610737565b106101b4576040517f08c379a00000000000000000000000000000000000000000000000000000000081526004016101ab906108d3565b60405180910390fd5b5f805f3373ffffffffffffffffffffffffffffffffffffffff1673ffffffffffffffffffffffffffffffffffffffff1681526020019081526020015f205403610232576040517f08c379a00000000000000000000000000000000000000000000000000000000081526004016102299061093b565b60405180910390fd5b5f3373ffffffffffffffffffffffffffffffffffffffff165f803373ffffffffffffffffffffffffffffffffffffffff1673ffffffffffffffffffffffffffffffffffffffff1681526020019081526020015f205460405161029390610986565b5f6040518083038185875af1925050503d805f81146102cd576040519150601f19603f3d011682016040523d82523d5f602084013e6102d2565b606091505b5050905080610316576040517f08c379a000000000000000000000000000000000000000000000000000000000815260040161030d906109e4565b60405180910390fd5b5f805f3373ffffffffffffffffffffffffffffffffffffffff1673ffffffffffffffffffffffffffffffffffffffff1681526020019081526020015f208190555050565b60015f9054906101000a900473ffffffffffffffffffffffffffffffffffffffff1681565b68056bc75e2d6310000061039247610737565b10156103d3576040517f08c379a00000000000000000000000000000000000000000000000000000000081526004016103ca90610a4c565b60405180910390fd5b60015f9054906101000a900473ffffffffffffffffffffffffffffffffffffffff1673ffffffffffffffffffffffffffffffffffffffff163373ffffffffffffffffffffffffffffffffffffffff1614610462576040517f08c379a000000000000000000000000000000000000000000000000000000000815260040161045990610ada565b60405180910390fd5b5f3373ffffffffffffffffffffffffffffffffffffffff164760405161048790610986565b5f6040518083038185875af1925050503d805f81146104c1576040519150601f19603f3d011682016040523d82523d5f602084013e6104c6565b606091505b505090508061050a576040517f08c379a0000000000000000000000000000000000000000000000000000000008152600401610501906109e4565b60405180910390fd5b50565b5f602052805f5260405f205f915090505481565b678ac7230489e8000061053334610737565b1015610574576040517f08c379a000000000000000000000000000000000000000000000000000000000815260040161056b90610b42565b60405180910390fd5b345f803373ffffffffffffffffffffffffffffffffffffffff1673ffffffffffffffffffffffffffffffffffffffff1681526020019081526020015f205f8282546105bf9190610b8d565b92505081905550565b5f8060025f9054906101000a900473ffffffffffffffffffffffffffffffffffffffff1673ffffffffffffffffffffffffffffffffffffffff1663feaf968c6040518163ffffffff1660e01b815260040160a060405180830381865afa158015610634573d5f803e3d5ffd5b505050506040513d601f19601f820116820180604052508101906106589190610c53565b5050509150508091505090565b60015f9054906101000a900473ffffffffffffffffffffffffffffffffffffffff1673ffffffffffffffffffffffffffffffffffffffff163373ffffffffffffffffffffffffffffffffffffffff16146106f4576040517f08c379a00000000000000000000000000000000000000000000000000000000081526004016106eb90610ada565b60405180910390fd5b8060015f6101000a81548173ffffffffffffffffffffffffffffffffffffffff021916908373ffffffffffffffffffffffffffffffffffffffff16021790555050565b5f806107416105c8565b90506305f5e10081846107549190610cca565b61075e9190610d38565b915050919050565b5f73ffffffffffffffffffffffffffffffffffffffff82169050919050565b5f61078f82610766565b9050919050565b61079f81610785565b82525050565b5f6020820190506107b85f830184610796565b92915050565b5f80fd5b6107cb81610785565b81146107d5575f80fd5b50565b5f813590506107e6816107c2565b92915050565b5f60208284031215610801576108006107be565b5b5f61080e848285016107d8565b91505092915050565b5f819050919050565b61082981610817565b82525050565b5f6020820190506108425f830184610820565b92915050565b5f819050919050565b61085a81610848565b82525050565b5f6020820190506108735f830184610851565b92915050565b5f82825260208201905092915050565b7f54617267657420697320726561636865640000000000000000000000000000005f82015250565b5f6108bd601183610879565b91506108c882610889565b602082019050919050565b5f6020820190508181035f8301526108ea816108b1565b9050919050565b7f74686973206973206e6f2066756e6420666f7220796f750000000000000000005f82015250565b5f610925601783610879565b9150610930826108f1565b602082019050919050565b5f6020820190508181035f83015261095281610919565b9050919050565b5f81905092915050565b50565b5f6109715f83610959565b915061097c82610963565b5f82019050919050565b5f61099082610966565b9150819050919050565b7f6572726f720000000000000000000000000000000000000000000000000000005f82015250565b5f6109ce600583610879565b91506109d98261099a565b602082019050919050565b5f6020820190508181035f8301526109fb816109c2565b9050919050565b7f546172676574206973206e6f74207265616368656400000000000000000000005f82015250565b5f610a36601583610879565b9150610a4182610a02565b602082019050919050565b5f6020820190508181035f830152610a6381610a2a565b9050919050565b7f746869732066756e6374696f6e2063616e206f6e6c792062652063616c6c65645f8201527f206279206f776e65720000000000000000000000000000000000000000000000602082015250565b5f610ac4602983610879565b9150610acf82610a6a565b604082019050919050565b5f6020820190508181035f830152610af181610ab8565b9050919050565b7f53656e64206d6f726520455448000000000000000000000000000000000000005f82015250565b5f610b2c600d83610879565b9150610b3782610af8565b602082019050919050565b5f6020820190508181035f830152610b5981610b20565b9050919050565b7f4e487b71000000000000000000000000000000000000000000000000000000005f52601160045260245ffd5b5f610b9782610817565b9150610ba283610817565b9250828201905080821115610bba57610bb9610b60565b5b92915050565b5f69ffffffffffffffffffff82169050919050565b610bde81610bc0565b8114610be8575f80fd5b50565b5f81519050610bf981610bd5565b92915050565b610c0881610848565b8114610c12575f80fd5b50565b5f81519050610c2381610bff565b92915050565b610c3281610817565b8114610c3c575f80fd5b50565b5f81519050610c4d81610c29565b92915050565b5f805f805f60a08688031215610c6c57610c6b6107be565b5b5f610c7988828901610beb565b9550506020610c8a88828901610c15565b9450506040610c9b88828901610c3f565b9350506060610cac88828901610c3f565b9250506080610cbd88828901610beb565b9150509295509295909350565b5f610cd482610817565b9150610cdf83610817565b9250828202610ced81610817565b91508282048414831517610d0457610d03610b60565b5b5092915050565b7f4e487b71000000000000000000000000000000000000000000000000000000005f52601260045260245ffd5b5f610d4282610817565b9150610d4d83610817565b925082610d5d57610d5c610d0b565b5b82820490509291505056fea2646970667358221220f38f666b3c69424317745faa25868002be6910897607da002ea4d7b154e946af64736f6c634300081a0033",
					"opcodes": "PUSH1 0x80 PUSH1 0x40 MSTORE CALLVALUE DUP1 ISZERO PUSH1 0xE JUMPI PUSH0 DUP1 REVERT JUMPDEST POP PUSH20 0x694AA1769357215DE4FAC081BF1F309ADC325306 PUSH1 0x2 PUSH0 PUSH2 0x100 EXP DUP2 SLOAD DUP2 PUSH20 0xFFFFFFFFFFFFFFFFFFFFFFFFFFFFFFFFFFFFFFFF MUL NOT AND SWAP1 DUP4 PUSH20 0xFFFFFFFFFFFFFFFFFFFFFFFFFFFFFFFFFFFFFFFF AND MUL OR SWAP1 SSTORE POP CALLER PUSH1 0x1 PUSH0 PUSH2 0x100 EXP DUP2 SLOAD DUP2 PUSH20 0xFFFFFFFFFFFFFFFFFFFFFFFFFFFFFFFFFFFFFFFF MUL NOT AND SWAP1 DUP4 PUSH20 0xFFFFFFFFFFFFFFFFFFFFFFFFFFFFFFFFFFFFFFFF AND MUL OR SWAP1 SSTORE POP PUSH2 0xD9E DUP1 PUSH2 0xB0 PUSH0 CODECOPY PUSH0 RETURN INVALID PUSH1 0x80 PUSH1 0x40 MSTORE PUSH1 0x4 CALLDATASIZE LT PUSH2 0x6F JUMPI PUSH0 CALLDATALOAD PUSH1 0xE0 SHR DUP1 PUSH4 0x9F883A05 GT PUSH2 0x4D JUMPI DUP1 PUSH4 0x9F883A05 EQ PUSH2 0xC9 JUMPI DUP1 PUSH4 0xB60D4288 EQ PUSH2 0x105 JUMPI DUP1 PUSH4 0xBEA4DFB5 EQ PUSH2 0x10F JUMPI DUP1 PUSH4 0xF2FDE38B EQ PUSH2 0x139 JUMPI PUSH2 0x6F JUMP JUMPDEST DUP1 PUSH4 0xFF0A4DF EQ PUSH2 0x73 JUMPI DUP1 PUSH4 0x8DA5CB5B EQ PUSH2 0x89 JUMPI DUP1 PUSH4 0x8EDD6EB6 EQ PUSH2 0xB3 JUMPI JUMPDEST PUSH0 DUP1 REVERT JUMPDEST CALLVALUE DUP1 ISZERO PUSH2 0x7E JUMPI PUSH0 DUP1 REVERT JUMPDEST POP PUSH2 0x87 PUSH2 0x161 JUMP JUMPDEST STOP JUMPDEST CALLVALUE DUP1 ISZERO PUSH2 0x94 JUMPI PUSH0 DUP1 REVERT JUMPDEST POP PUSH2 0x9D PUSH2 0x35A JUMP JUMPDEST PUSH1 0x40 MLOAD PUSH2 0xAA SWAP2 SWAP1 PUSH2 0x7A5 JUMP JUMPDEST PUSH1 0x40 MLOAD DUP1 SWAP2 SUB SWAP1 RETURN JUMPDEST CALLVALUE DUP1 ISZERO PUSH2 0xBE JUMPI PUSH0 DUP1 REVERT JUMPDEST POP PUSH2 0xC7 PUSH2 0x37F JUMP JUMPDEST STOP JUMPDEST CALLVALUE DUP1 ISZERO PUSH2 0xD4 JUMPI PUSH0 DUP1 REVERT JUMPDEST POP PUSH2 0xEF PUSH1 0x4 DUP1 CALLDATASIZE SUB DUP2 ADD SWAP1 PUSH2 0xEA SWAP2 SWAP1 PUSH2 0x7EC JUMP JUMPDEST PUSH2 0x50D JUMP JUMPDEST PUSH1 0x40 MLOAD PUSH2 0xFC SWAP2 SWAP1 PUSH2 0x82F JUMP JUMPDEST PUSH1 0x40 MLOAD DUP1 SWAP2 SUB SWAP1 RETURN JUMPDEST PUSH2 0x10D PUSH2 0x521 JUMP JUMPDEST STOP JUMPDEST CALLVALUE DUP1 ISZERO PUSH2 0x11A JUMPI PUSH0 DUP1 REVERT JUMPDEST POP PUSH2 0x123 PUSH2 0x5C8 JUMP JUMPDEST PUSH1 0x40 MLOAD PUSH2 0x130 SWAP2 SWAP1 PUSH2 0x860 JUMP JUMPDEST PUSH1 0x40 MLOAD DUP1 SWAP2 SUB SWAP1 RETURN JUMPDEST CALLVALUE DUP1 ISZERO PUSH2 0x144 JUMPI PUSH0 DUP1 REVERT JUMPDEST POP PUSH2 0x15F PUSH1 0x4 DUP1 CALLDATASIZE SUB DUP2 ADD SWAP1 PUSH2 0x15A SWAP2 SWAP1 PUSH2 0x7EC JUMP JUMPDEST PUSH2 0x665 JUMP JUMPDEST STOP JUMPDEST PUSH9 0x56BC75E2D63100000 PUSH2 0x174 SELFBALANCE PUSH2 0x737 JUMP JUMPDEST LT PUSH2 0x1B4 JUMPI PUSH1 0x40 MLOAD PUSH32 0x8C379A000000000000000000000000000000000000000000000000000000000 DUP2 MSTORE PUSH1 0x4 ADD PUSH2 0x1AB SWAP1 PUSH2 0x8D3 JUMP JUMPDEST PUSH1 0x40 MLOAD DUP1 SWAP2 SUB SWAP1 REVERT JUMPDEST PUSH0 DUP1 PUSH0 CALLER PUSH20 0xFFFFFFFFFFFFFFFFFFFFFFFFFFFFFFFFFFFFFFFF AND PUSH20 0xFFFFFFFFFFFFFFFFFFFFFFFFFFFFFFFFFFFFFFFF AND DUP2 MSTORE PUSH1 0x20 ADD SWAP1 DUP2 MSTORE PUSH1 0x20 ADD PUSH0 KECCAK256 SLOAD SUB PUSH2 0x232 JUMPI PUSH1 0x40 MLOAD PUSH32 0x8C379A000000000000000000000000000000000000000000000000000000000 DUP2 MSTORE PUSH1 0x4 ADD PUSH2 0x229 SWAP1 PUSH2 0x93B JUMP JUMPDEST PUSH1 0x40 MLOAD DUP1 SWAP2 SUB SWAP1 REVERT JUMPDEST PUSH0 CALLER PUSH20 0xFFFFFFFFFFFFFFFFFFFFFFFFFFFFFFFFFFFFFFFF AND PUSH0 DUP1 CALLER PUSH20 0xFFFFFFFFFFFFFFFFFFFFFFFFFFFFFFFFFFFFFFFF AND PUSH20 0xFFFFFFFFFFFFFFFFFFFFFFFFFFFFFFFFFFFFFFFF AND DUP2 MSTORE PUSH1 0x20 ADD SWAP1 DUP2 MSTORE PUSH1 0x20 ADD PUSH0 KECCAK256 SLOAD PUSH1 0x40 MLOAD PUSH2 0x293 SWAP1 PUSH2 0x986 JUMP JUMPDEST PUSH0 PUSH1 0x40 MLOAD DUP1 DUP4 SUB DUP2 DUP6 DUP8 GAS CALL SWAP3 POP POP POP RETURNDATASIZE DUP1 PUSH0 DUP2 EQ PUSH2 0x2CD JUMPI PUSH1 0x40 MLOAD SWAP2 POP PUSH1 0x1F NOT PUSH1 0x3F RETURNDATASIZE ADD AND DUP3 ADD PUSH1 0x40 MSTORE RETURNDATASIZE DUP3 MSTORE RETURNDATASIZE PUSH0 PUSH1 0x20 DUP5 ADD RETURNDATACOPY PUSH2 0x2D2 JUMP JUMPDEST PUSH1 0x60 SWAP2 POP JUMPDEST POP POP SWAP1 POP DUP1 PUSH2 0x316 JUMPI PUSH1 0x40 MLOAD PUSH32 0x8C379A000000000000000000000000000000000000000000000000000000000 DUP2 MSTORE PUSH1 0x4 ADD PUSH2 0x30D SWAP1 PUSH2 0x9E4 JUMP JUMPDEST PUSH1 0x40 MLOAD DUP1 SWAP2 SUB SWAP1 REVERT JUMPDEST PUSH0 DUP1 PUSH0 CALLER PUSH20 0xFFFFFFFFFFFFFFFFFFFFFFFFFFFFFFFFFFFFFFFF AND PUSH20 0xFFFFFFFFFFFFFFFFFFFFFFFFFFFFFFFFFFFFFFFF AND DUP2 MSTORE PUSH1 0x20 ADD SWAP1 DUP2 MSTORE PUSH1 0x20 ADD PUSH0 KECCAK256 DUP2 SWAP1 SSTORE POP POP JUMP JUMPDEST PUSH1 0x1 PUSH0 SWAP1 SLOAD SWAP1 PUSH2 0x100 EXP SWAP1 DIV PUSH20 0xFFFFFFFFFFFFFFFFFFFFFFFFFFFFFFFFFFFFFFFF AND DUP2 JUMP JUMPDEST PUSH9 0x56BC75E2D63100000 PUSH2 0x392 SELFBALANCE PUSH2 0x737 JUMP JUMPDEST LT ISZERO PUSH2 0x3D3 JUMPI PUSH1 0x40 MLOAD PUSH32 0x8C379A000000000000000000000000000000000000000000000000000000000 DUP2 MSTORE PUSH1 0x4 ADD PUSH2 0x3CA SWAP1 PUSH2 0xA4C JUMP JUMPDEST PUSH1 0x40 MLOAD DUP1 SWAP2 SUB SWAP1 REVERT JUMPDEST PUSH1 0x1 PUSH0 SWAP1 SLOAD SWAP1 PUSH2 0x100 EXP SWAP1 DIV PUSH20 0xFFFFFFFFFFFFFFFFFFFFFFFFFFFFFFFFFFFFFFFF AND PUSH20 0xFFFFFFFFFFFFFFFFFFFFFFFFFFFFFFFFFFFFFFFF AND CALLER PUSH20 0xFFFFFFFFFFFFFFFFFFFFFFFFFFFFFFFFFFFFFFFF AND EQ PUSH2 0x462 JUMPI PUSH1 0x40 MLOAD PUSH32 0x8C379A000000000000000000000000000000000000000000000000000000000 DUP2 MSTORE PUSH1 0x4 ADD PUSH2 0x459 SWAP1 PUSH2 0xADA JUMP JUMPDEST PUSH1 0x40 MLOAD DUP1 SWAP2 SUB SWAP1 REVERT JUMPDEST PUSH0 CALLER PUSH20 0xFFFFFFFFFFFFFFFFFFFFFFFFFFFFFFFFFFFFFFFF AND SELFBALANCE PUSH1 0x40 MLOAD PUSH2 0x487 SWAP1 PUSH2 0x986 JUMP JUMPDEST PUSH0 PUSH1 0x40 MLOAD DUP1 DUP4 SUB DUP2 DUP6 DUP8 GAS CALL SWAP3 POP POP POP RETURNDATASIZE DUP1 PUSH0 DUP2 EQ PUSH2 0x4C1 JUMPI PUSH1 0x40 MLOAD SWAP2 POP PUSH1 0x1F NOT PUSH1 0x3F RETURNDATASIZE ADD AND DUP3 ADD PUSH1 0x40 MSTORE RETURNDATASIZE DUP3 MSTORE RETURNDATASIZE PUSH0 PUSH1 0x20 DUP5 ADD RETURNDATACOPY PUSH2 0x4C6 JUMP JUMPDEST PUSH1 0x60 SWAP2 POP JUMPDEST POP POP SWAP1 POP DUP1 PUSH2 0x50A JUMPI PUSH1 0x40 MLOAD PUSH32 0x8C379A000000000000000000000000000000000000000000000000000000000 DUP2 MSTORE PUSH1 0x4 ADD PUSH2 0x501 SWAP1 PUSH2 0x9E4 JUMP JUMPDEST PUSH1 0x40 MLOAD DUP1 SWAP2 SUB SWAP1 REVERT JUMPDEST POP JUMP JUMPDEST PUSH0 PUSH1 0x20 MSTORE DUP1 PUSH0 MSTORE PUSH1 0x40 PUSH0 KECCAK256 PUSH0 SWAP2 POP SWAP1 POP SLOAD DUP2 JUMP JUMPDEST PUSH8 0x8AC7230489E80000 PUSH2 0x533 CALLVALUE PUSH2 0x737 JUMP JUMPDEST LT ISZERO PUSH2 0x574 JUMPI PUSH1 0x40 MLOAD PUSH32 0x8C379A000000000000000000000000000000000000000000000000000000000 DUP2 MSTORE PUSH1 0x4 ADD PUSH2 0x56B SWAP1 PUSH2 0xB42 JUMP JUMPDEST PUSH1 0x40 MLOAD DUP1 SWAP2 SUB SWAP1 REVERT JUMPDEST CALLVALUE PUSH0 DUP1 CALLER PUSH20 0xFFFFFFFFFFFFFFFFFFFFFFFFFFFFFFFFFFFFFFFF AND PUSH20 0xFFFFFFFFFFFFFFFFFFFFFFFFFFFFFFFFFFFFFFFF AND DUP2 MSTORE PUSH1 0x20 ADD SWAP1 DUP2 MSTORE PUSH1 0x20 ADD PUSH0 KECCAK256 PUSH0 DUP3 DUP3 SLOAD PUSH2 0x5BF SWAP2 SWAP1 PUSH2 0xB8D JUMP JUMPDEST SWAP3 POP POP DUP2 SWAP1 SSTORE POP JUMP JUMPDEST PUSH0 DUP1 PUSH1 0x2 PUSH0 SWAP1 SLOAD SWAP1 PUSH2 0x100 EXP SWAP1 DIV PUSH20 0xFFFFFFFFFFFFFFFFFFFFFFFFFFFFFFFFFFFFFFFF AND PUSH20 0xFFFFFFFFFFFFFFFFFFFFFFFFFFFFFFFFFFFFFFFF AND PUSH4 0xFEAF968C PUSH1 0x40 MLOAD DUP2 PUSH4 0xFFFFFFFF AND PUSH1 0xE0 SHL DUP2 MSTORE PUSH1 0x4 ADD PUSH1 0xA0 PUSH1 0x40 MLOAD DUP1 DUP4 SUB DUP2 DUP7 GAS STATICCALL ISZERO DUP1 ISZERO PUSH2 0x634 JUMPI RETURNDATASIZE PUSH0 DUP1 RETURNDATACOPY RETURNDATASIZE PUSH0 REVERT JUMPDEST POP POP POP POP PUSH1 0x40 MLOAD RETURNDATASIZE PUSH1 0x1F NOT PUSH1 0x1F DUP3 ADD AND DUP3 ADD DUP1 PUSH1 0x40 MSTORE POP DUP2 ADD SWAP1 PUSH2 0x658 SWAP2 SWAP1 PUSH2 0xC53 JUMP JUMPDEST POP POP POP SWAP2 POP POP DUP1 SWAP2 POP POP SWAP1 JUMP JUMPDEST PUSH1 0x1 PUSH0 SWAP1 SLOAD SWAP1 PUSH2 0x100 EXP SWAP1 DIV PUSH20 0xFFFFFFFFFFFFFFFFFFFFFFFFFFFFFFFFFFFFFFFF AND PUSH20 0xFFFFFFFFFFFFFFFFFFFFFFFFFFFFFFFFFFFFFFFF AND CALLER PUSH20 0xFFFFFFFFFFFFFFFFFFFFFFFFFFFFFFFFFFFFFFFF AND EQ PUSH2 0x6F4 JUMPI PUSH1 0x40 MLOAD PUSH32 0x8C379A000000000000000000000000000000000000000000000000000000000 DUP2 MSTORE PUSH1 0x4 ADD PUSH2 0x6EB SWAP1 PUSH2 0xADA JUMP JUMPDEST PUSH1 0x40 MLOAD DUP1 SWAP2 SUB SWAP1 REVERT JUMPDEST DUP1 PUSH1 0x1 PUSH0 PUSH2 0x100 EXP DUP2 SLOAD DUP2 PUSH20 0xFFFFFFFFFFFFFFFFFFFFFFFFFFFFFFFFFFFFFFFF MUL NOT AND SWAP1 DUP4 PUSH20 0xFFFFFFFFFFFFFFFFFFFFFFFFFFFFFFFFFFFFFFFF AND MUL OR SWAP1 SSTORE POP POP JUMP JUMPDEST PUSH0 DUP1 PUSH2 0x741 PUSH2 0x5C8 JUMP JUMPDEST SWAP1 POP PUSH4 0x5F5E100 DUP2 DUP5 PUSH2 0x754 SWAP2 SWAP1 PUSH2 0xCCA JUMP JUMPDEST PUSH2 0x75E SWAP2 SWAP1 PUSH2 0xD38 JUMP JUMPDEST SWAP2 POP POP SWAP2 SWAP1 POP JUMP JUMPDEST PUSH0 PUSH20 0xFFFFFFFFFFFFFFFFFFFFFFFFFFFFFFFFFFFFFFFF DUP3 AND SWAP1 POP SWAP2 SWAP1 POP JUMP JUMPDEST PUSH0 PUSH2 0x78F DUP3 PUSH2 0x766 JUMP JUMPDEST SWAP1 POP SWAP2 SWAP1 POP JUMP JUMPDEST PUSH2 0x79F DUP2 PUSH2 0x785 JUMP JUMPDEST DUP3 MSTORE POP POP JUMP JUMPDEST PUSH0 PUSH1 0x20 DUP3 ADD SWAP1 POP PUSH2 0x7B8 PUSH0 DUP4 ADD DUP5 PUSH2 0x796 JUMP JUMPDEST SWAP3 SWAP2 POP POP JUMP JUMPDEST PUSH0 DUP1 REVERT JUMPDEST PUSH2 0x7CB DUP2 PUSH2 0x785 JUMP JUMPDEST DUP2 EQ PUSH2 0x7D5 JUMPI PUSH0 DUP1 REVERT JUMPDEST POP JUMP JUMPDEST PUSH0 DUP2 CALLDATALOAD SWAP1 POP PUSH2 0x7E6 DUP2 PUSH2 0x7C2 JUMP JUMPDEST SWAP3 SWAP2 POP POP JUMP JUMPDEST PUSH0 PUSH1 0x20 DUP3 DUP5 SUB SLT ISZERO PUSH2 0x801 JUMPI PUSH2 0x800 PUSH2 0x7BE JUMP JUMPDEST JUMPDEST PUSH0 PUSH2 0x80E DUP5 DUP3 DUP6 ADD PUSH2 0x7D8 JUMP JUMPDEST SWAP2 POP POP SWAP3 SWAP2 POP POP JUMP JUMPDEST PUSH0 DUP2 SWAP1 POP SWAP2 SWAP1 POP JUMP JUMPDEST PUSH2 0x829 DUP2 PUSH2 0x817 JUMP JUMPDEST DUP3 MSTORE POP POP JUMP JUMPDEST PUSH0 PUSH1 0x20 DUP3 ADD SWAP1 POP PUSH2 0x842 PUSH0 DUP4 ADD DUP5 PUSH2 0x820 JUMP JUMPDEST SWAP3 SWAP2 POP POP JUMP JUMPDEST PUSH0 DUP2 SWAP1 POP SWAP2 SWAP1 POP JUMP JUMPDEST PUSH2 0x85A DUP2 PUSH2 0x848 JUMP JUMPDEST DUP3 MSTORE POP POP JUMP JUMPDEST PUSH0 PUSH1 0x20 DUP3 ADD SWAP1 POP PUSH2 0x873 PUSH0 DUP4 ADD DUP5 PUSH2 0x851 JUMP JUMPDEST SWAP3 SWAP2 POP POP JUMP JUMPDEST PUSH0 DUP3 DUP3 MSTORE PUSH1 0x20 DUP3 ADD SWAP1 POP SWAP3 SWAP2 POP POP JUMP JUMPDEST PUSH32 0x5461726765742069732072656163686564000000000000000000000000000000 PUSH0 DUP3 ADD MSTORE POP JUMP JUMPDEST PUSH0 PUSH2 0x8BD PUSH1 0x11 DUP4 PUSH2 0x879 JUMP JUMPDEST SWAP2 POP PUSH2 0x8C8 DUP3 PUSH2 0x889 JUMP JUMPDEST PUSH1 0x20 DUP3 ADD SWAP1 POP SWAP2 SWAP1 POP JUMP JUMPDEST PUSH0 PUSH1 0x20 DUP3 ADD SWAP1 POP DUP2 DUP2 SUB PUSH0 DUP4 ADD MSTORE PUSH2 0x8EA DUP2 PUSH2 0x8B1 JUMP JUMPDEST SWAP1 POP SWAP2 SWAP1 POP JUMP JUMPDEST PUSH32 0x74686973206973206E6F2066756E6420666F7220796F75000000000000000000 PUSH0 DUP3 ADD MSTORE POP JUMP JUMPDEST PUSH0 PUSH2 0x925 PUSH1 0x17 DUP4 PUSH2 0x879 JUMP JUMPDEST SWAP2 POP PUSH2 0x930 DUP3 PUSH2 0x8F1 JUMP JUMPDEST PUSH1 0x20 DUP3 ADD SWAP1 POP SWAP2 SWAP1 POP JUMP JUMPDEST PUSH0 PUSH1 0x20 DUP3 ADD SWAP1 POP DUP2 DUP2 SUB PUSH0 DUP4 ADD MSTORE PUSH2 0x952 DUP2 PUSH2 0x919 JUMP JUMPDEST SWAP1 POP SWAP2 SWAP1 POP JUMP JUMPDEST PUSH0 DUP2 SWAP1 POP SWAP3 SWAP2 POP POP JUMP JUMPDEST POP JUMP JUMPDEST PUSH0 PUSH2 0x971 PUSH0 DUP4 PUSH2 0x959 JUMP JUMPDEST SWAP2 POP PUSH2 0x97C DUP3 PUSH2 0x963 JUMP JUMPDEST PUSH0 DUP3 ADD SWAP1 POP SWAP2 SWAP1 POP JUMP JUMPDEST PUSH0 PUSH2 0x990 DUP3 PUSH2 0x966 JUMP JUMPDEST SWAP2 POP DUP2 SWAP1 POP SWAP2 SWAP1 POP JUMP JUMPDEST PUSH32 0x6572726F72000000000000000000000000000000000000000000000000000000 PUSH0 DUP3 ADD MSTORE POP JUMP JUMPDEST PUSH0 PUSH2 0x9CE PUSH1 0x5 DUP4 PUSH2 0x879 JUMP JUMPDEST SWAP2 POP PUSH2 0x9D9 DUP3 PUSH2 0x99A JUMP JUMPDEST PUSH1 0x20 DUP3 ADD SWAP1 POP SWAP2 SWAP1 POP JUMP JUMPDEST PUSH0 PUSH1 0x20 DUP3 ADD SWAP1 POP DUP2 DUP2 SUB PUSH0 DUP4 ADD MSTORE PUSH2 0x9FB DUP2 PUSH2 0x9C2 JUMP JUMPDEST SWAP1 POP SWAP2 SWAP1 POP JUMP JUMPDEST PUSH32 0x546172676574206973206E6F7420726561636865640000000000000000000000 PUSH0 DUP3 ADD MSTORE POP JUMP JUMPDEST PUSH0 PUSH2 0xA36 PUSH1 0x15 DUP4 PUSH2 0x879 JUMP JUMPDEST SWAP2 POP PUSH2 0xA41 DUP3 PUSH2 0xA02 JUMP JUMPDEST PUSH1 0x20 DUP3 ADD SWAP1 POP SWAP2 SWAP1 POP JUMP JUMPDEST PUSH0 PUSH1 0x20 DUP3 ADD SWAP1 POP DUP2 DUP2 SUB PUSH0 DUP4 ADD MSTORE PUSH2 0xA63 DUP2 PUSH2 0xA2A JUMP JUMPDEST SWAP1 POP SWAP2 SWAP1 POP JUMP JUMPDEST PUSH32 0x746869732066756E6374696F6E2063616E206F6E6C792062652063616C6C6564 PUSH0 DUP3 ADD MSTORE PUSH32 0x206279206F776E65720000000000000000000000000000000000000000000000 PUSH1 0x20 DUP3 ADD MSTORE POP JUMP JUMPDEST PUSH0 PUSH2 0xAC4 PUSH1 0x29 DUP4 PUSH2 0x879 JUMP JUMPDEST SWAP2 POP PUSH2 0xACF DUP3 PUSH2 0xA6A JUMP JUMPDEST PUSH1 0x40 DUP3 ADD SWAP1 POP SWAP2 SWAP1 POP JUMP JUMPDEST PUSH0 PUSH1 0x20 DUP3 ADD SWAP1 POP DUP2 DUP2 SUB PUSH0 DUP4 ADD MSTORE PUSH2 0xAF1 DUP2 PUSH2 0xAB8 JUMP JUMPDEST SWAP1 POP SWAP2 SWAP1 POP JUMP JUMPDEST PUSH32 0x53656E64206D6F72652045544800000000000000000000000000000000000000 PUSH0 DUP3 ADD MSTORE POP JUMP JUMPDEST PUSH0 PUSH2 0xB2C PUSH1 0xD DUP4 PUSH2 0x879 JUMP JUMPDEST SWAP2 POP PUSH2 0xB37 DUP3 PUSH2 0xAF8 JUMP JUMPDEST PUSH1 0x20 DUP3 ADD SWAP1 POP SWAP2 SWAP1 POP JUMP JUMPDEST PUSH0 PUSH1 0x20 DUP3 ADD SWAP1 POP DUP2 DUP2 SUB PUSH0 DUP4 ADD MSTORE PUSH2 0xB59 DUP2 PUSH2 0xB20 JUMP JUMPDEST SWAP1 POP SWAP2 SWAP1 POP JUMP JUMPDEST PUSH32 0x4E487B7100000000000000000000000000000000000000000000000000000000 PUSH0 MSTORE PUSH1 0x11 PUSH1 0x4 MSTORE PUSH1 0x24 PUSH0 REVERT JUMPDEST PUSH0 PUSH2 0xB97 DUP3 PUSH2 0x817 JUMP JUMPDEST SWAP2 POP PUSH2 0xBA2 DUP4 PUSH2 0x817 JUMP JUMPDEST SWAP3 POP DUP3 DUP3 ADD SWAP1 POP DUP1 DUP3 GT ISZERO PUSH2 0xBBA JUMPI PUSH2 0xBB9 PUSH2 0xB60 JUMP JUMPDEST JUMPDEST SWAP3 SWAP2 POP POP JUMP JUMPDEST PUSH0 PUSH10 0xFFFFFFFFFFFFFFFFFFFF DUP3 AND SWAP1 POP SWAP2 SWAP1 POP JUMP JUMPDEST PUSH2 0xBDE DUP2 PUSH2 0xBC0 JUMP JUMPDEST DUP2 EQ PUSH2 0xBE8 JUMPI PUSH0 DUP1 REVERT JUMPDEST POP JUMP JUMPDEST PUSH0 DUP2 MLOAD SWAP1 POP PUSH2 0xBF9 DUP2 PUSH2 0xBD5 JUMP JUMPDEST SWAP3 SWAP2 POP POP JUMP JUMPDEST PUSH2 0xC08 DUP2 PUSH2 0x848 JUMP JUMPDEST DUP2 EQ PUSH2 0xC12 JUMPI PUSH0 DUP1 REVERT JUMPDEST POP JUMP JUMPDEST PUSH0 DUP2 MLOAD SWAP1 POP PUSH2 0xC23 DUP2 PUSH2 0xBFF JUMP JUMPDEST SWAP3 SWAP2 POP POP JUMP JUMPDEST PUSH2 0xC32 DUP2 PUSH2 0x817 JUMP JUMPDEST DUP2 EQ PUSH2 0xC3C JUMPI PUSH0 DUP1 REVERT JUMPDEST POP JUMP JUMPDEST PUSH0 DUP2 MLOAD SWAP1 POP PUSH2 0xC4D DUP2 PUSH2 0xC29 JUMP JUMPDEST SWAP3 SWAP2 POP POP JUMP JUMPDEST PUSH0 DUP1 PUSH0 DUP1 PUSH0 PUSH1 0xA0 DUP7 DUP9 SUB SLT ISZERO PUSH2 0xC6C JUMPI PUSH2 0xC6B PUSH2 0x7BE JUMP JUMPDEST JUMPDEST PUSH0 PUSH2 0xC79 DUP9 DUP3 DUP10 ADD PUSH2 0xBEB JUMP JUMPDEST SWAP6 POP POP PUSH1 0x20 PUSH2 0xC8A DUP9 DUP3 DUP10 ADD PUSH2 0xC15 JUMP JUMPDEST SWAP5 POP POP PUSH1 0x40 PUSH2 0xC9B DUP9 DUP3 DUP10 ADD PUSH2 0xC3F JUMP JUMPDEST SWAP4 POP POP PUSH1 0x60 PUSH2 0xCAC DUP9 DUP3 DUP10 ADD PUSH2 0xC3F JUMP JUMPDEST SWAP3 POP POP PUSH1 0x80 PUSH2 0xCBD DUP9 DUP3 DUP10 ADD PUSH2 0xBEB JUMP JUMPDEST SWAP2 POP POP SWAP3 SWAP6 POP SWAP3 SWAP6 SWAP1 SWAP4 POP JUMP JUMPDEST PUSH0 PUSH2 0xCD4 DUP3 PUSH2 0x817 JUMP JUMPDEST SWAP2 POP PUSH2 0xCDF DUP4 PUSH2 0x817 JUMP JUMPDEST SWAP3 POP DUP3 DUP3 MUL PUSH2 0xCED DUP2 PUSH2 0x817 JUMP JUMPDEST SWAP2 POP DUP3 DUP3 DIV DUP5 EQ DUP4 ISZERO OR PUSH2 0xD04 JUMPI PUSH2 0xD03 PUSH2 0xB60 JUMP JUMPDEST JUMPDEST POP SWAP3 SWAP2 POP POP JUMP JUMPDEST PUSH32 0x4E487B7100000000000000000000000000000000000000000000000000000000 PUSH0 MSTORE PUSH1 0x12 PUSH1 0x4 MSTORE PUSH1 0x24 PUSH0 REVERT JUMPDEST PUSH0 PUSH2 0xD42 DUP3 PUSH2 0x817 JUMP JUMPDEST SWAP2 POP PUSH2 0xD4D DUP4 PUSH2 0x817 JUMP JUMPDEST SWAP3 POP DUP3 PUSH2 0xD5D JUMPI PUSH2 0xD5C PUSH2 0xD0B JUMP JUMPDEST JUMPDEST DUP3 DUP3 DIV SWAP1 POP SWAP3 SWAP2 POP POP JUMP INVALID LOG2 PUSH5 0x6970667358 0x22 SLT KECCAK256 RETURN DUP16 PUSH7 0x6B3C6942431774 PUSH0 0xAA 0x25 DUP7 DUP1 MUL 0xBE PUSH10 0x10897607DA002EA4D7B1 SLOAD 0xE9 CHAINID 0xAF PUSH5 0x736F6C6343 STOP ADDMOD BYTE STOP CALLER "
				},
				"gasEstimates": {
					"creation": {
						"codeDepositCost": "697200",
						"executionCost": "49257",
						"totalCost": "746457"
					},
					"external": {
						"fund()": "infinite",
						"fundersToAmount(address)": "2801",
						"getChainlinkDataFeedLatestAnswer()": "infinite",
						"getFund()": "infinite",
						"owner()": "2531",
						"reFund()": "infinite",
						"transferOwnership(address)": "26950"
					},
					"internal": {
						"convertEth2USD(uint256)": "infinite"
					}
				},
				"methodIdentifiers": {
					"fund()": "b60d4288",
					"fundersToAmount(address)": "9f883a05",
					"getChainlinkDataFeedLatestAnswer()": "bea4dfb5",
					"getFund()": "8edd6eb6",
					"owner()": "8da5cb5b",
					"reFund()": "0ff0a4df",
					"transferOwnership(address)": "f2fde38b"
				}
			},
			"storageLayout": {
				"storage": [
					{
						"astId": 53,
						"contract": "FundMe.sol:FuneMe",
						"label": "fundersToAmount",
						"offset": 0,
						"slot": "0",
						"type": "t_mapping(t_address,t_uint256)"
					},
					{
						"astId": 69,
						"contract": "FundMe.sol:FuneMe",
						"label": "owner",
						"offset": 0,
						"slot": "1",
						"type": "t_address"
					},
					{
						"astId": 72,
						"contract": "FundMe.sol:FuneMe",
						"label": "dataFeed",
						"offset": 0,
						"slot": "2",
						"type": "t_contract(AggregatorV3Interface)45"
					}
				],
				"types": {
					"t_address": {
						"encoding": "inplace",
						"label": "address",
						"numberOfBytes": "20"
					},
					"t_contract(AggregatorV3Interface)45": {
						"encoding": "inplace",
						"label": "contract AggregatorV3Interface",
						"numberOfBytes": "20"
					},
					"t_mapping(t_address,t_uint256)": {
						"encoding": "mapping",
						"key": "t_address",
						"label": "mapping(address => uint256)",
						"numberOfBytes": "32",
						"value": "t_uint256"
					},
					"t_uint256": {
						"encoding": "inplace",
						"label": "uint256",
						"numberOfBytes": "32"
					}
				}
			},
			"userdoc": {
				"kind": "user",
				"methods": {
					"getChainlinkDataFeedLatestAnswer()": {
						"notice": "Returns the latest answer."
					}
				},
				"version": 1
			}
		}
	}
}