{
	"data": {
		"bytecode": {
			"linkReferences": {},
			"object": "6080604052607b5f553480156012575f80fd5b50610349806100205f395ff3fe608060405234801561000f575f80fd5b5060043610610055575f3560e01c806320987767146100595780632b813bc0146100755780634e70b1dc1461007f578063b8bd717f1461009d578063c2985578146100b9575b5f80fd5b610073600480360381019061006e91906101bb565b6100c3565b005b61007d61010a565b005b61008761011e565b60405161009491906101f5565b60405180910390f35b6100b760048036038101906100b291906101bb565b610123565b005b6100c161016a565b005b600a811115610107576040517f08c379a00000000000000000000000000000000000000000000000000000000081526004016100fe90610268565b60405180910390fd5b50565b607b5f541461011c5761011b610286565b5b565b5f5481565b600a811115610167576040517f08c379a000000000000000000000000000000000000000000000000000000000815260040161015e90610268565b60405180910390fd5b50565b60015f8082825461017b91906102e0565b92505081905550565b5f80fd5b5f819050919050565b61019a81610188565b81146101a4575f80fd5b50565b5f813590506101b581610191565b92915050565b5f602082840312156101d0576101cf610184565b5b5f6101dd848285016101a7565b91505092915050565b6101ef81610188565b82525050565b5f6020820190506102085f8301846101e6565b92915050565b5f82825260208201905092915050565b7f69203e20313000000000000000000000000000000000000000000000000000005f82015250565b5f61025260068361020e565b915061025d8261021e565b602082019050919050565b5f6020820190508181035f83015261027f81610246565b9050919050565b7f4e487b71000000000000000000000000000000000000000000000000000000005f52600160045260245ffd5b7f4e487b71000000000000000000000000000000000000000000000000000000005f52601160045260245ffd5b5f6102ea82610188565b91506102f583610188565b925082820190508082111561030d5761030c6102b3565b5b9291505056fea2646970667358221220da2c948983cd03e7ca7bf234b1353a4ce4fd2d05493cdb68ce716167417ad2a464736f6c634300081a0033",
			"opcodes": "PUSH1 0x80 PUSH1 0x40 MSTORE PUSH1 0x7B PUSH0 SSTORE CALLVALUE DUP1 ISZERO PUSH1 0x12 JUMPI PUSH0 DUP1 REVERT JUMPDEST POP PUSH2 0x349 DUP1 PUSH2 0x20 PUSH0 CODECOPY PUSH0 RETURN INVALID PUSH1 0x80 PUSH1 0x40 MSTORE CALLVALUE DUP1 ISZERO PUSH2 0xF JUMPI PUSH0 DUP1 REVERT JUMPDEST POP PUSH1 0x4 CALLDATASIZE LT PUSH2 0x55 JUMPI PUSH0 CALLDATALOAD PUSH1 0xE0 SHR DUP1 PUSH4 0x20987767 EQ PUSH2 0x59 JUMPI DUP1 PUSH4 0x2B813BC0 EQ PUSH2 0x75 JUMPI DUP1 PUSH4 0x4E70B1DC EQ PUSH2 0x7F JUMPI DUP1 PUSH4 0xB8BD717F EQ PUSH2 0x9D JUMPI DUP1 PUSH4 0xC2985578 EQ PUSH2 0xB9 JUMPI JUMPDEST PUSH0 DUP1 REVERT JUMPDEST PUSH2 0x73 PUSH1 0x4 DUP1 CALLDATASIZE SUB DUP2 ADD SWAP1 PUSH2 0x6E SWAP2 SWAP1 PUSH2 0x1BB JUMP JUMPDEST PUSH2 0xC3 JUMP JUMPDEST STOP JUMPDEST PUSH2 0x7D PUSH2 0x10A JUMP JUMPDEST STOP JUMPDEST PUSH2 0x87 PUSH2 0x11E JUMP JUMPDEST PUSH1 0x40 MLOAD PUSH2 0x94 SWAP2 SWAP1 PUSH2 0x1F5 JUMP JUMPDEST PUSH1 0x40 MLOAD DUP1 SWAP2 SUB SWAP1 RETURN JUMPDEST PUSH2 0xB7 PUSH1 0x4 DUP1 CALLDATASIZE SUB DUP2 ADD SWAP1 PUSH2 0xB2 SWAP2 SWAP1 PUSH2 0x1BB JUMP JUMPDEST PUSH2 0x123 JUMP JUMPDEST STOP JUMPDEST PUSH2 0xC1 PUSH2 0x16A JUMP JUMPDEST STOP JUMPDEST PUSH1 0xA DUP2 GT ISZERO PUSH2 0x107 JUMPI PUSH1 0x40 MLOAD PUSH32 0x8C379A000000000000000000000000000000000000000000000000000000000 DUP2 MSTORE PUSH1 0x4 ADD PUSH2 0xFE SWAP1 PUSH2 0x268 JUMP JUMPDEST PUSH1 0x40 MLOAD DUP1 SWAP2 SUB SWAP1 REVERT JUMPDEST POP JUMP JUMPDEST PUSH1 0x7B PUSH0 SLOAD EQ PUSH2 0x11C JUMPI PUSH2 0x11B PUSH2 0x286 JUMP JUMPDEST JUMPDEST JUMP JUMPDEST PUSH0 SLOAD DUP2 JUMP JUMPDEST PUSH1 0xA DUP2 GT ISZERO PUSH2 0x167 JUMPI PUSH1 0x40 MLOAD PUSH32 0x8C379A000000000000000000000000000000000000000000000000000000000 DUP2 MSTORE PUSH1 0x4 ADD PUSH2 0x15E SWAP1 PUSH2 0x268 JUMP JUMPDEST PUSH1 0x40 MLOAD DUP1 SWAP2 SUB SWAP1 REVERT JUMPDEST POP JUMP JUMPDEST PUSH1 0x1 PUSH0 DUP1 DUP3 DUP3 SLOAD PUSH2 0x17B SWAP2 SWAP1 PUSH2 0x2E0 JUMP JUMPDEST SWAP3 POP POP DUP2 SWAP1 SSTORE POP JUMP JUMPDEST PUSH0 DUP1 REVERT JUMPDEST PUSH0 DUP2 SWAP1 POP SWAP2 SWAP1 POP JUMP JUMPDEST PUSH2 0x19A DUP2 PUSH2 0x188 JUMP JUMPDEST DUP2 EQ PUSH2 0x1A4 JUMPI PUSH0 DUP1 REVERT JUMPDEST POP JUMP JUMPDEST PUSH0 DUP2 CALLDATALOAD SWAP1 POP PUSH2 0x1B5 DUP2 PUSH2 0x191 JUMP JUMPDEST SWAP3 SWAP2 POP POP JUMP JUMPDEST PUSH0 PUSH1 0x20 DUP3 DUP5 SUB SLT ISZERO PUSH2 0x1D0 JUMPI PUSH2 0x1CF PUSH2 0x184 JUMP JUMPDEST JUMPDEST PUSH0 PUSH2 0x1DD DUP5 DUP3 DUP6 ADD PUSH2 0x1A7 JUMP JUMPDEST SWAP2 POP POP SWAP3 SWAP2 POP POP JUMP JUMPDEST PUSH2 0x1EF DUP2 PUSH2 0x188 JUMP JUMPDEST DUP3 MSTORE POP POP JUMP JUMPDEST PUSH0 PUSH1 0x20 DUP3 ADD SWAP1 POP PUSH2 0x208 PUSH0 DUP4 ADD DUP5 PUSH2 0x1E6 JUMP JUMPDEST SWAP3 SWAP2 POP POP JUMP JUMPDEST PUSH0 DUP3 DUP3 MSTORE PUSH1 0x20 DUP3 ADD SWAP1 POP SWAP3 SWAP2 POP POP JUMP JUMPDEST PUSH32 0x69203E2031300000000000000000000000000000000000000000000000000000 PUSH0 DUP3 ADD MSTORE POP JUMP JUMPDEST PUSH0 PUSH2 0x252 PUSH1 0x6 DUP4 PUSH2 0x20E JUMP JUMPDEST SWAP2 POP PUSH2 0x25D DUP3 PUSH2 0x21E JUMP JUMPDEST PUSH1 0x20 DUP3 ADD SWAP1 POP SWAP2 SWAP1 POP JUMP JUMPDEST PUSH0 PUSH1 0x20 DUP3 ADD SWAP1 POP DUP2 DUP2 SUB PUSH0 DUP4 ADD MSTORE PUSH2 0x27F DUP2 PUSH2 0x246 JUMP JUMPDEST SWAP1 POP SWAP2 SWAP1 POP JUMP JUMPDEST PUSH32 0x4E487B7100000000000000000000000000000000000000000000000000000000 PUSH0 MSTORE PUSH1 0x1 PUSH1 0x4 MSTORE PUSH1 0x24 PUSH0 REVERT JUMPDEST PUSH32 0x4E487B7100000000000000000000000000000000000000000000000000000000 PUSH0 MSTORE PUSH1 0x11 PUSH1 0x4 MSTORE PUSH1 0x24 PUSH0 REVERT JUMPDEST PUSH0 PUSH2 0x2EA DUP3 PUSH2 0x188 JUMP JUMPDEST SWAP2 POP PUSH2 0x2F5 DUP4 PUSH2 0x188 JUMP JUMPDEST SWAP3 POP DUP3 DUP3 ADD SWAP1 POP DUP1 DUP3 GT ISZERO PUSH2 0x30D JUMPI PUSH2 0x30C PUSH2 0x2B3 JUMP JUMPDEST JUMPDEST SWAP3 SWAP2 POP POP JUMP INVALID LOG2 PUSH5 0x6970667358 0x22 SLT KECCAK256 0xDA 0x2C SWAP5 DUP10 DUP4 0xCD SUB 0xE7 0xCA PUSH28 0xF234B1353A4CE4FD2D05493CDB68CE716167417AD2A464736F6C6343 STOP ADDMOD BYTE STOP CALLER "
		},
		"gasEstimates": {
			"creation": {
				"codeDepositCost": "168200",
				"executionCost": "22317",
				"totalCost": "190517"
			},
			"external": {
				"foo()": "infinite",
				"num()": "2446",
				"testAssert()": "2292",
				"testRequire(uint256)": "753",
				"testRevert(uint256)": "687"
			}
		},
		"methodIdentifiers": {
			"foo()": "c2985578",
			"num()": "4e70b1dc",
			"testAssert()": "2b813bc0",
			"testRequire(uint256)": "b8bd717f",
			"testRevert(uint256)": "20987767"
		}
	},
	"abi": [
		{
			"inputs": [],
			"name": "foo",
			"outputs": [],
			"stateMutability": "nonpayable",
			"type": "function"
		},
		{
			"inputs": [],
			"name": "num",
			"outputs": [
				{
					"internalType": "uint256",
					"name": "",
					"type": "uint256"
				}
			],
			"stateMutability": "view",
			"type": "function"
		},
		{
			"inputs": [],
			"name": "testAssert",
			"outputs": [],
			"stateMutability": "view",
			"type": "function"
		},
		{
			"inputs": [
				{
					"internalType": "uint256",
					"name": "_i",
					"type": "uint256"
				}
			],
			"name": "testRequire",
			"outputs": [],
			"stateMutability": "pure",
			"type": "function"
		},
		{
			"inputs": [
				{
					"internalType": "uint256",
					"name": "_i",
					"type": "uint256"
				}
			],
			"name": "testRevert",
			"outputs": [],
			"stateMutability": "pure",
			"type": "function"
		}
	]
}